:100000000C942A000C9447000C9447000C94470071
:100010000C9447000C9447000C9447000C94470044
:100020000C9447000C9447000C9447000C94470034
:100030000C9447000C9447000C9447000C94470024
:100040000C9447000C9447000C9447000C94470014
:100050000C94470011241FBECFE5D4E0DEBFCDBF16
:1000600011E0A0E6B0E0E4EDFDE302C005900D92E2
:10007000A430B107D9F713E0A4E0B1E001C01D92AC
:10008000A837B107E1F70E944E000C94E81E0C94CB
:100090000000982F9295907F892B0895DF93CF933E
:1000A00000D0CDB7DEB78AB3806F8ABB8BB3806FC9
:1000B0008BBB84B3806F84BB85B3806F85BB84B3F7
:1000C0008F6084BB85B38F6085BB8FE39DE0A3E029
:1000D00081509040A040E1F700C0000089E091E02D
:1000E00060E670E041E00E94F90F882359F480E84F
:1000F0008BBB8FE39DE0A3E081509040A040E1F7EF
:1001000000C0000081E085BB8FE39DE0A3E081504B
:100110009040A040E1F700C0000087E593E061E671
:1001200070E04AE00E9442108823B9F583E085BB65
:100130008FE39DE0A3E081509040A040E1F700C034
:10014000000087E593E06DE670E04BE050E09E0133
:100150002F5F3F4F0E94CE1287E085BB8FE39DE06B
:10016000A3E081509040A040E1F700C0000087E587
:1001700093E00E940A158FE085BB8FE39DE0A3E02A
:1001800081509040A040E1F700C0000089819A8131
:100190008B30910511F485E585BB81E885BB8FE344
:1001A0009DE0A3E081509040A040E1F700C0000036
:1001B000FFCFBE98BF9ABD9ABC9A80E58DB981E009
:1001C0008EB908958FB9779BFECF8FB108950F93A5
:1001D0001F93CF93DF93EC018B01C49A8FEF0E94A2
:1001E000E200899301501040C9F7DF91CF911F9130
:1001F0000F910895EF92FF920F931F93DF93CF9388
:100200000F92CDB7DEB708E813E17E010894E11C38
:10021000F11CC70161E070E00E94E70089818F3F17
:1002200019F001501040A9F721E030E00115110547
:1002300011F420E030E0C9010F90CF91DF911F91C0
:100240000F91FF90EF900895AF92BF92CF92DF92FF
:10025000EF92FF920F931F93DF93CF9300D0CDB710
:10026000DEB76C015B0108EE13E07E010894E11C2F
:10027000F11CC70161E070E00E94E70089818F3FB7
:1002800019F08E3F89F404C00150104091F70CC062
:10029000C601B5010E94E700C70162E070E00E945C
:1002A000E70021E030E002C020E030E0C9010F901B
:1002B0000F90CF91DF911F910F91FF90EF90DF9002
:1002C000CF90BF90AF900895DF93CF930F92CDB7AB
:1002D000DEB7C39ACE01019661E070E00E94E700AC
:1002E0000F90CF91DF910895DF93CF930F92CDB709
:1002F000DEB7C398CE01019661E070E00E94E7008E
:100300000E94FA00009729F40E94640120E030E086
:1003100002C021E030E0C9010F90CF91DF91089534
:100320000F931F93CF93DF93EC018B0189910E9470
:10033000E20001501040D1F7DF91CF911F910F9152
:100340000895DF92EF92FF920F931F93DF93CF9365
:10035000CDB7DEB727970FB6F894DEBF0FBECDBF7F
:10036000082F142FF52EE62ED72E87FF09C087E31E
:1003700040E050E0BA010E94A1018230C8F50F7739
:100380000C3031F00E9464010E947401009779F1F1
:10039000802F80648A83DB82EC82FD821E830023AF
:1003A00021F0083021F081E003C085E901C087E831
:1003B0008F83CE01029666E070E00E9490010C30BF
:1003C00031F4CE01019661E070E00E94E7008AE01E
:1003D000F82E8E010F5F1F4FC80161E070E00E9490
:1003E000E700898187FF04C0FA94B1F701C08FEF5D
:1003F00027960FB6F894DEBF0FBECDBFCF91DF9129
:100400001F910F91FF90EF90DF900895DF92EF9290
:10041000FF920F931F93DF93CF9300D0CDB7DEB73A
:100420007C01D62E0E94FA00009709F1D9828E0134
:100430000F5F1F4FC80161E070E00E9490018D2D99
:100440008D3FC1F0C70160E072E00E949001C801D9
:1004500062E070E00E94E700C80161E070E00E9485
:10046000E70089818F7121E030E0853029F020E0BC
:1004700030E002C021E030E0C9010F900F90CF9131
:10048000DF911F910F91FF90EF90DF9008958823E7
:1004900019F480917900089581E00895FF920F93F7
:1004A0001F93DF93CF9300D000D000D0CDB7DEB73D
:1004B000882309F09FC083EC99E00197F1F700C011
:1004C0000000BB9AC39ABE9AC698BC9A9AE0F92ECD
:1004D0008E010F5F1F4FC80161E070E00E94E700CE
:1004E000FA94C9F780E040E050E0BA010E94A1010F
:1004F000813009F072C088E04AEA51E060E070E0C3
:100500000E94A1018130B1F5C80164E070E00E9451
:10051000E7008B81813009F060C08C818A3A09F054
:100520005CC008EE13E089EA40E050E060E070E46F
:100530000E94A101882351F0E9EFF0E03197F1F733
:1005400000C000000150104071F747C08AE340E04E
:1005500050E0BA010E94A101882309F03EC0CE01FB
:10056000019664E070E00E94E700898186FF33C055
:100570009CE034C089EA40E050E0BA010E94A10149
:10058000823018F429EA92E002C021E091E008EEFE
:1005900013E0822F40E050E0BA012D839E830E9439
:1005A000A1012D819E81882351F0E9EFF0E0319780
:1005B000F1F700C000000150104059F70EC080E173
:1005C00040E052E060E070E09E830E94A1019E81C5
:1005D000882319F403C094E001C090E090930401D3
:1005E00081E0911180E0809379008D830E94640105
:1005F0008D8101C083E026960FB6F894DEBF0FBE52
:10060000CDBFCF91DF911F910F91FF900895FF9281
:100610000F931F93CF93DF93EB01BA01A9018823B6
:1006200019F48091790001C081E080FD36C080918D
:10063000040183FD07C0E9E0440F551F661F771FC3
:10064000EA95D1F70230110518F032E1F32E02C01D
:1006500021E1F22E8F2D0E94A1018823B1F4CE0159
:1006600060E072E00E942401009731F001501040D8
:1006700019F0C050DE4FF3CF8F2D823131F48CE072
:1006800040E050E0BA010E94A1010E94640181E0B3
:100690000115110519F480E001C083E0DF91CF91CD
:1006A0001F910F91FF900895CF92DF92EF92FF92EA
:1006B0000F931F93CF93DF93EB0169017A01882396
:1006C00019F48091790001C081E080FD4FC08091D4
:1006D000040190E083FD07C0F9E0CC0CDD1CEE1CAA
:1006E000FF1CFA95D1F70130110571F488E1B701CB
:1006F000A6010E94A101882389F5CE016EEF0E9418
:100700000602009731F52AC086709070009731F08C
:10071000A80160E070E087E90E94A10189E1B701CA
:10072000A6010E94A1018823C9F4CE016CEF0E94AA
:100730000602009731F00150104019F0C050DE4F12
:10074000F4CF80E090E06DEF0E940602009721F068
:1007500005C000E010E002C001E010E00E9464016A
:1007600081E00115110519F480E001C083E0DF91FB
:10077000CF911F910F91FF90EF90DF90CF90089550
:100780000F931F93DF93CF93CDB7DEB761970FB66B
:10079000F894DEBF0FBECDBF8A01882319F4809183
:1007A000790001C081E080FD8BC0613061F0613073
:1007B00020F0633009F07CC076C00E94740100977D
:1007C00009F06FC077C089E040E050E0BA010E94B4
:1007D000A101882309F06EC0CE01019660E170E0AE
:1007E0000E942401009709F465C09981929596951D
:1007F00096959370888549855A859130F9F490E0F3
:10080000A0E0B0E08F739070A070B070DC01992709
:1008100088270196A11DB11D342F20E0250F311D21
:1008200040E050E0820F931FA41FB51F2AE0880FFD
:10083000991FAA1FBB1F2A95D1F72EC04295469536
:100840004695437090E0880F991F880F991F840F79
:10085000911D01962F8130E023703070322F2227B6
:10086000330F330F820F931FA0E0B0E02E812F7063
:100870004B85441F4427441F240F2E5F352F3370B0
:10088000330F230F30E02950304004C0880F991FE8
:10089000AA1FBB1F2A95D2F7F80180839183A283F8
:1008A000B38380E008C080E890E0A0E0B0E0F4CF3F
:1008B00084E001C081E0898B0E946401898901C0C4
:1008C00083E061960FB6F894DEBF0FBECDBFCF9127
:1008D000DF911F910F910895CF93DF939C01CB017E
:1008E000DB01F901BA0106C0CD91DD91C193D1932D
:1008F0006250704062307105B8F7BA016E7F260F02
:10090000371F860F971F40FF04C0FC018081F9014B
:100910008083DF91CF910895282F392FF90103C0EB
:1009200061934150504041155105D1F70895FC01A4
:10093000538F428F758B648B0895CF93DF93FC01A7
:10094000EB01299626853785408951892115310586
:100950004105510581F10288F389E02DDF0180E036
:1009600090E03EE22D910196203241F0253009F4CD
:1009700025EE8930910509F4399329938B3091053F
:1009800089F78385DB0118968C931897248D358D14
:10099000468D578D2D933D934D935C931397808D8A
:1009A000918D15969C938E931497868997891796A7
:1009B0009C938E9316971882DF91CF910895CF93D1
:1009C000DF93EC01E881F9813097E1F0DF01CD019F
:1009D0002D912132A0F02A33D1F7208130E020532D
:1009E00030402A30310570F43196E817F90751F498
:1009F0002115310539F43196F983E88305C020E0EB
:100A000030E002C02FEF3FEFC901DF91CF91089591
:100A1000FC010097C1F0A081B1811097A1F08C91E9
:100A2000882389F016962D913C91179782819381A6
:100A30002817390741F411968C910E94470280FFD4
:100A400004C083E0089589E0089580E008958F92BE
:100A50009F92AF92BF92CF92DF92EF92FF920F934D
:100A60001F93CF93DF93EC018C81882309F444C05A
:100A7000CAA4DBA4ECA4FDA48EE2882E912C8C0EDB
:100A80009D1E8981B401A701960101E010E00E943A
:100A90005403882379F51C828E8D9F8DA8A1B9A15E
:100AA000A7019601281B390B4A0B5B0B8E899F8986
:100AB000A88DB98D281739074A075B07E8F4AB8082
:100AC000BB2413C08E899F89A88DB98DC80ED91EED
:100AD000EA1EFB1E8981B401A701960101E010E026
:100AE0000E9454030894A108B10882E0A816B1043A
:100AF00048F702C081E001C080E0DF91CF911F91F3
:100B00000F91FF90EF90DF90CF90BF90AF909F90AC
:100B10008F900895CF92DF92EF92FF920F931F93E1
:100B2000CF93DF93EC016A017B018AA59BA5ACA55D
:100B3000BDA5481759076A077B07B1F0CE010E948F
:100B40002705882399F4BE01625D7F4F8981A70143
:100B5000960101E010E00E940703882339F4CAA639
:100B6000DBA6ECA6FDA603C080E001C081E0DF911A
:100B7000CF911F910F91FF90EF90DF90CF9008954C
:100B8000CF93DF93EC011C828FEF9FEFDC018AA7EC
:100B90009BA7ACA7BDA7CE010E948A05882351F56B
:100BA000FE01BE96DE01A45DBD4F8D919C91119713
:100BB0002AEA8535920701F586A997A9A0ADB1ADBE
:100BC000B070863421E4920724E5A20720E0B20742
:100BD000A9F0C058DF4F288139814A815B8150706C
:100BE00081E0263491E4390794E5490790E05907FC
:100BF00031F404C083E003C082E001C080E0DF91F3
:100C0000CF9108952F923F924F925F926F927F9271
:100C10008F929F92AF92BF92CF92DF92EF92FF920C
:100C20000F931F93DF93CF93CDB7DEB7A0970FB687
:100C3000F894DEBF0FBECDBF7C01CB01942ED7014F
:100C40001D921C920E94DF045C0197FD51C2FC01C1
:100C5000EE0FFF1FEB5FFE4F0081118101151105A3
:100C600009F448C2F70111830083D8018C918823CD
:100C700061F011968C910E94470280FD06C0992078
:100C800009F43AC282FF38C23BC2F8011082A18245
:100C90008A2D0E944E0280FD31C2992011F082FD02
:100CA0002FC2C80140E050E0BA010E94C005813067
:100CB00009F047C07E010894E11CF11CA7012EEB4E
:100CC00031E0F901BE96E00FF11F8481882329F0FD
:100CD00080859185A285B38503C080E090E0DC012A
:100CE000FA0181939193A193B193AF01205F3F4F9C
:100CF000F1E02E3F3F0729F791E1A92EB12CAC0E70
:100D0000BD1ED7016D907D908D909D907D016114E9
:100D100071048104910461F0C801B401A3010E942F
:100D2000C005882331F4698A7A8A8B8A9C8A13C029
:100D300082E0EA14FB0429F7698A7A8A8B8A9C8A02
:100D400004C0198A1A8A1B8A1C8A833009F4DAC102
:100D5000882309F0D9C18EE2E82EF12CE00EF11EB5
:100D6000F70183859485F2E080309F0709F0CCC1BC
:100D7000D70156968D919C9157979C0140E050E089
:100D80002D8B3E8B4F8B588F211531054105510519
:100D900051F494968D919D910D90BC91A02D8D8BC9
:100DA0009E8BAF8BB88F2D893E894F89588DD80186
:100DB00056962D933D934D935C935997DE962C91C7
:100DC000DE9713962C931397822F8150823008F070
:100DD0009BC1DB965C90DB9712965C921297552034
:100DE00009F492C1452D50E0CA010197842395234F
:100DF000009709F089C1F7012188328819963C9241
:100E00002E921897C1018F709070009709F07CC1E5
:100E1000638874888824992461147104810491047E
:100E200021F460A071A082A093A0D7011E96AD907E
:100E3000BC901F97A114B10409F466C130E040E0F2
:100E400050E06D897E898F89988D0E94A71E698FD9
:100E50007A8F8B8F9C8F950140E050E02D8F3E8FD5
:100E60004F8F58A35101B4E0B694A794BA95E1F717
:100E7000CC24DD24A20EB31EC41ED51EA60EB71EA2
:100E8000C81ED91E6A147B048C049D0408F43CC15E
:100E9000C401B3016A197B098C099D09252D30E035
:100EA00040E050E00E94C61E211531054105510564
:100EB00009F42AC1263F6FE0360760E0460760E08C
:100EC000560758F0263F8FEF380780E0480780E04C
:100ED000580730F4A2E09A2E05C09924939402C0DA
:100EE000F3E09F2E2E5F3F4F4F4F5F4FD80152963A
:100EF0002D933D934D935C93559789899A89AB893E
:100F0000BC89F801828F938FA48FB58F2C013D018E
:100F10008D8D9E8DAF8DB8A1480E591E6A1E7B1E09
:100F2000D8015E964D925D926D927C9291978989DF
:100F30009A89AB89BC89A80EB91ECA1EDB1ED801CE
:100F40009696AD92BD92CD92DC929997B92DB33021
:100F5000C1F42114310409F0D7C0F70184A595A587
:100F6000A6A5B7A5F80182A393A3A4A3B5A3DA010C
:100F7000C901E2E0880F991FAA1FBB1FEA95D1F7AC
:100F80002AC02114310409F4BFC0898D9A8DAB8D1C
:100F9000BC8D840D951DA61DB71DF80182A393A3DA
:100FA000A4A3B5A3DA01C901880F991FAA1FBB1F0B
:100FB000F92DF23081F0820F931FA41FB51FB69553
:100FC000A795979587952170307040705070820F6B
:100FD000931FA41FB51F81509E4FAF4FBF4F29E0F5
:100FE000B695A795979587952A95D1F72D893E892E
:100FF0004F89588D281739074A075B0708F484C0C2
:101000008FEF9FEFDC01F80186879787A08BB18B6C
:1010100082879387A487B58780E88583F92DF3308D
:1010200009F056C0D701D0968D919C91D19781300F
:10103000910509F04DC049895A896B897C894F5FB8
:101040005F4F6F4F7F4FC8010E948A05882309F0C8
:101050003FC0F8011582F701E250FE4F8081918177
:10106000FAEA85359F07A1F5F80186A597A5A0A9FD
:10107000B1A98235F2E59F07F1E6AF07F1E4BF07BA
:1010800039F5F701EC51FE4F80819181A281B38146
:10109000823722E7920721E4A20721E6B207C1F4D2
:1010A000F701E851FE4F80819181A281B381F8015F
:1010B00086879787A08BB18BF701E451FE4F808123
:1010C0009181A281B381F80182879387A487B58734
:1010D000D8019C928091070190910801019690930C
:1010E00008018093070117969C938E93169704C06E
:1010F0008BE00BC08CE009C080E007C083E005C036
:101100008AE003C081E001C08DE0A0960FB6F8949C
:10111000DEBF0FBECDBFCF91DF911F910F91FF902A
:10112000EF90DF90CF90BF90AF909F908F907F9087
:101130006F905F904F903F902F9008950F931F9363
:10114000CF93DF93EC010E942705982F882309F0A5
:101150005FC08881833009F051C08D81813009F0F2
:101160004DC08E01025D1F4FC80160E070E040E09D
:1011700052E00E948C04FE01E45DFD4F85E59AEA91
:101180009183808382E592E5A1E6B1E48EA79FA7D3
:10119000A8ABB9ABFE01EE5EFD4F82E792E7A1E49A
:1011A000B1E680839183A283B383FE01EA5EFD4FA3
:1011B0008E859F85A889B98980839183A283B38313
:1011C000FE01E65EFD4F8A859B85AC85BD858083EB
:1011D0009183A283B3832A8D3B8D4C8D5D8D2F5FD0
:1011E0003F4F4F4F5F4F2AA73BA74CA75DA7898171
:1011F000B80101E010E00E9454031D82898160E083
:1012000040E050E00E94C00391E0882309F490E0A0
:10121000892FDF91CF911F910F910895FB01228DAE
:10122000338D40E050E0833059F484899589A0E003
:10123000B0E0DC0199278827282B392B4A2B5B2B20
:10124000B901CA01089560E070E0CB010895CF9321
:10125000DF93EC01CB01BA016250704080409040B6
:101260002A893B894C895D8922503040404050405A
:10127000621773078407950788F42A8130E040E0FD
:1012800050E00E94A71E9B01AC018EA19FA1A8A5C2
:10129000B9A5280F391F4A1F5B1F03C020E030E0AB
:1012A000A901B901CA01DF91CF910895BF92CF92F0
:1012B000DF92EF92FF920F931F93CF93DF93EC0196
:1012C0006A017B01423051056105710508F4A2C035
:1012D0008A899B89AC89BD89481759076A077B07AA
:1012E00008F098C08881823009F456C0833009F430
:1012F0006FC0813009F08EC08A0116950795040FE2
:10130000151FA801452F5527469560E070E08E8D8A
:101310009F8DA8A1B9A1480F591F6A1F7B1FCE013D
:101320000E948A05882309F07AC0F801F170EC0F59
:10133000FD1FB6A40F5F1F4FA801452F55274695E7
:1013400060E070E08E8D9F8DA8A1B9A1480F591F54
:101350006A1F7B1FCE010E948A05882309F05FC0A7
:101360002B2D30E011700C0F1D1FF80196A580E0A9
:10137000282B392BF1E0CF22DD24C114D10431F028
:1013800014E0369527951A95E1F71FC040E050E02C
:101390003F704070507046C0452F562F672F7727FB
:1013A0008E8D9F8DA8A1B9A1480F591F6A1F7B1F61
:1013B000CE010E948A05882391F5F601EE0FFF1FEA
:1013C000F170EC0FFD1F26A537A540E050E02AC0C4
:1013D000E7E07695679557954795EA95D1F78E8D15
:1013E0009F8DA8A1B9A1480F591F6A1F7B1FCE016D
:1013F0000E948A05882399F4F601EE0FFF1FEE0F75
:10140000FF1FF170EC0FFD1F26A537A540A951A9BC
:101410005F7008C021E030E040E050E003C02FEFF3
:101420003FEFA901B901CA01DF91CF911F910F913F
:10143000FF90EF90DF90CF90BF900895AF92BF9252
:10144000CF92DF92EF92FF920F931F93CF93DF9390
:10145000EC016B017D836C83EE80FF80088519852C
:1014600021E0E216F1040105110509F48AC0E881C2
:10147000F98182899389A489B589E816F9060A0752
:101480001B0708F07EC0E114F10401051105C1F449
:101490008081833041F482A193A1A4A1B5A10097DA
:1014A000A105B10559F480859185C816D90608F0C3
:1014B00068C062A173A184A195A137C07C018D0190
:1014C000A280BB2454E0AA0CBB1C5A95E1F724C0AF
:1014D000B801A7010E9456097B018C018FEFE81625
:1014E0008FEFF8068FEF08078FEF180709F447C052
:1014F00022E0E216F1040105110508F442C0E8817A
:10150000F98182899389A489B589E816F9060A07C1
:101510001B07B8F5CA18DB0888819981CA14DB0457
:10152000B8F6A701B8010E942709EA86FB860C8756
:101530001D87611571058105910519F1960144E03A
:10154000369527954A95E1F740E050E0260F371F82
:10155000481F591F2E873F87488B598B8881998157
:101560008E962FE0C222DD2435E0CC0CDD1C3A95AE
:10157000E1F78C0D9D1D9B8B8A8B80E003C081E081
:1015800001C082E0DF91CF911F910F91FF90EF900A
:10159000DF90CF90BF90AF9008951F93CF93DF93CC
:1015A000EC016C817D810E941E0A182F8823D9F4DA
:1015B0004E855F8568897989888199810E948A052D
:1015C000182F882381F48A899B8960E070E040E2CB
:1015D00050E00E948C04EA89FB8985EE8083E881D3
:1015E000F98181E08483812FDF91CF911F9108954C
:1015F0008F929F92AF92BF92CF92DF92EF92FF9223
:101600000F931F93CF93DF93EC016A017B01480195
:101610005901423051056105710508F4C3C08A893A
:101620009B89AC89BD89481759076A077B0708F071
:10163000B9C08881823009F468C0833009F480C061
:10164000813009F0ABC08A01169507950C0D1D1D60
:10165000A801452F5527469560E070E08E8D9F8D3F
:10166000A8A1B9A1480F591F6A1F7B1FCE010E9474
:101670008A05882309F093C0C8019170E1E0CE2269
:10168000DD24C114D10451F0FE01E80FF91F36A585
:101690003F70282D2295207F232B01C0282D8C0FF1
:1016A0009D1FFC0126A70F5F1F4F81E08C83A801BF
:1016B000452F5527469560E070E08E8D9F8DA8A13F
:1016C000B9A1480F591F6A1F7B1FCE010E948A05CE
:1016D000882309F064C01170C114D10449F094E06A
:1016E000B694A794979487949A95D1F7982D08C0AB
:1016F000FE01E00FF11F96A5907F292D2F70922BF0
:101700000C0F1D1FF80196A74AC0452F562F672FB3
:1017100077278E8D9F8DA8A1B9A1480F591F6A1FE9
:101720007B1FCE010E948A058823C9F5F601EE0FC2
:10173000FF1FF170BE96EC0FFD1F918280822FC0BB
:10174000E7E07695679557954795EA95D1F78E8DA1
:101750009F8DA8A1B9A1480F591F6A1F7B1FCE01F9
:101760000E948A058823D9F4F601EE0FFF1FEE0FC1
:10177000FF1FF170BE96EC0FFD1F20813181428169
:101780005381207030704070507F282939294A29B0
:101790005B29208331834283538301C082E091E03F
:1017A0009C8301C082E0DF91CF911F910F91FF9048
:1017B000EF90DF90CF90BF90AF909F908F90089563
:1017C0004F925F926F927F928F929F92AF92BF9251
:1017D000CF92DF92EF92FF920F931F93CF93DF93FD
:1017E000EC012A013B01411551056105710599F490
:1017F0008A849B84AC84BD8481149104A104B104C7
:1018000051F18A899B89AC89BD8988169906AA06F7
:10181000BB0608F525C00E9456099B01AC01623049
:1018200071058105910508F49DC02F3F8FEF3807A2
:101830008FEF48078FEF580709F498C08A899B8972
:10184000AC89BD89281739074A075B0708F48EC0A1
:101850005301420105C061E0862E912CA12CB12CD0
:10186000750164010894C11CD11CE11CF11C8A891A
:101870009B89AC89BD89C816D906EA06FB0660F0CB
:1018800022E082169104A104B10408F464C052E07D
:10189000C52ED12CE12CF12CCE01B701A6010E945E
:1018A00056099B01AC016115710581059105A9F0EF
:1018B0002F3F8FEF38078FEF48078FEF580709F456
:1018C00055C0213031054105510509F44FC0C814F8
:1018D000D904EA04FB0431F63EC08C2CBD2CAE2C9E
:1018E0009F2CCE01A601B7010FEF1FEF2FEF3FE0B6
:1018F0000E94F80A882349F54114510461047104D7
:1019000049F0CE01B301A201860197010E94F80AB5
:101910008823D9F48A86BB86AC869D868E859F8572
:10192000A889B9898F3F2FEF92072FEFA2072FEFDA
:10193000B207A9F00197A109B1098E879F87A88BEB
:10194000B98B8D8181608D830AC0813059F42FEF6E
:101950003FEFA9010BC020E030E0A90107C0A701BB
:10196000960104C021E030E040E050E0B901CA0136
:10197000DF91CF911F910F91FF90EF90DF90CF906B
:10198000BF90AF909F908F907F906F905F904F909F
:1019900008956F927F929F92AF92BF92CF92DF9203
:1019A000EF92FF920F931F93CF93DF93EC015B01B4
:1019B000CC80DD800894C11CD11CC114D10409F471
:1019C000EDC08E859F85A889B9890097A105B105CD
:1019D00009F4E4C01FE0612E712C6C207D2061149D
:1019E000710409F0CBC00196A11DB11D8E879F87A0
:1019F000A88BB98B4A855B856C857D8588819981AB
:101A0000411551056105710541F4FC018085918501
:101A1000C816D90608F4B2C0C1C0FC01228130E06A
:101A200021503040F601A4E0F695E795AA95E1F73C
:101A30002E233F232115310509F0A0C00E9456092D
:101A40007B018C01623071058105910508F4AAC003
:101A50008FEFE8168FEFF8068FEF08078FEF180764
:101A600009F4A2C088819981FC01228933894489C3
:101A70005589E216F3060407150708F471C0A1148E
:101A8000B10409F48BC04A855B856C857D850E9415
:101A9000E00B7B018C01611571058105910509F44D
:101AA0007FC0613071058105910509F47BC08FEF1E
:101AB000E8168FEFF8068FEF08078FEF180709F485
:101AC00073C0888199810E942705882309F06CC022
:101AD000888199818E9660E070E040E052E00E943B
:101AE0008C04A880B980C501B801A7010E9427090C
:101AF000F50162A773A784A795A7AA24BB249924FC
:101B0000939418C09482888199810E942705882324
:101B100009F04AC0E881F98182A593A5A4A5B5A5DD
:101B20000196A11DB11D82A793A7A4A7B5A70894EC
:101B3000A11CB11CE881F981828190E0A816B90648
:101B400008F3950140E050E082A593A5A4A5B5A5B2
:101B5000821B930BA40BB50B82A793A7A4A7B5A7D1
:101B6000EA86FB860C871D8788819981B801A701C9
:101B70000E9427096E877F87888B998BDD82CC82B4
:101B8000888199818E9675E0660C771C7A95E1F7CD
:101B9000860D971D9B8B8A8B80E007C084E005C073
:101BA00087E003C082E001C081E0DF91CF911F9107
:101BB0000F91FF90EF90DF90CF90BF90AF909F90EC
:101BC0007F906F900895BF92CF92DF92EF92FF9235
:101BD0000F931F93CF93DF93EC018B01FB01808167
:101BE0008F3211F08C3511F40F5F1F4F1E821F8250
:101BF00018861986F8018081803240F4CE0160E0B9
:101C000070E00E941E0A1B8A1A8AF3C085E0B82E73
:101C10006801F80180810F5F1F4F8F32C9F38C3547
:101C2000B9F30C891D89C80160E270E04BE050E017
:101C30000E948C0480E090E0EE24FF2428E030E055
:101C4000A0E0F601EE0DFF1DB0810894E11CF11C2F
:101C5000B13208F460C0BF3209F45FC0BC3509F48A
:101C60005CC0BE3219F08217930770F0283031053E
:101C700009F0BCC0BE3209F0B9C0AA0FAA0F88E0B3
:101C800090E02BE030E0DDCFB7FDA3604B2F415853
:101C90004F3118F04F554D3100F5F601EE0DFF1D97
:101CA0006081462F40544F3320F040544D3708F0A8
:101CB0009DC0A901415050408417950708F096C077
:101CC0000894E11CF11CF801E80FF91FB08301969C
:101CD000F801E80FF91F60831CC06B2F70E0EAE782
:101CE000F0E04191442329F050E046175707C9F727
:101CF0007DC04B2F41544A3110F4A26006C04B2FD7
:101D000041564A3110F4A160B052F801E80FF91FB2
:101D1000B083019696CF44E001C040E0009709F4FB
:101D200065C0F8018081853E09F4B0822830310514
:101D300011F4AA0FAA0FB0E0CD018370907081302A
:101D4000910509F44061AC70B070A430B10509F49C
:101D50004860F8014387CE0160E070E00E941E0AEF
:101D6000882329F54E855F856889798988819981DD
:101D70000E948A058823D9F4EA89FB8990819923F6
:101D8000A9F0938593FD0CC0AC89BD899F01255FA7
:101D90003F4FE217F30759F041919D914917C9F35D
:101DA000CE0160E070E00E94C90CDACF84E0EC89DB
:101DB000FD899385882329F08430D9F492FF18C0D7
:101DC00018C092FD16C06A897B89FB01838584FF58
:101DD0000FC086010E0D1F1DE881F98180810E94D0
:101DE0000E096E837F838887998712CF86E001C0B2
:101DF00085E0DF91CF911F910F91FF90EF90DF90E1
:101E0000CF90BF9008951F93CF93DF93EC0160E0D4
:101E100070E00E941E0A182F8823C1F44E855F854A
:101E200068897989888199810E948A05182F882379
:101E300069F4EA89FB898081853E59F0882349F05D
:101E4000CE0161E070E00E94C90CE5CF143011F5BD
:101E500020C04E855F8568897989888199810E9433
:101E60008A05182F8823B1F48A899B8960E070E085
:101E700040E250E00E948C046C897D898A899B89AC
:101E80004BE050E00E946C04E881F98181E084839A
:101E900001C017E0812FDF91CF911F910895CF935B
:101EA000DF93EC0184E01DC0888199810E948A053E
:101EB000882311F5EA89FB899081992321F12385F3
:101EC000953E41F09E3231F0922F9F739F3011F07A
:101ED0009830B1F4CE0160E070E00E94C90C882314
:101EE00059F44E855F8568897989411551056105E9
:101EF0007105D1F6882321F01E861F86188A198A5B
:101F0000DF91CF91089584E0F7CFAF92BF92CF9247
:101F1000DF92EF92FF920F931F93CF93DF93EC0129
:101F20007A018B01423051056105710508F453C0F7
:101F30008A899B89AC89BD89481759076A077B073D
:101F4000F0F149C0CE01B801A7010E9456095B011A
:101F50006C016115710581059105D9F181E0A81623
:101F6000B104C104D104B9F12FEFA2162FEFB206CC
:101F70002FEFC2062FEFD20681F1CE01B801A701E3
:101F800000E010E098010E94F80A882339F58E8558
:101F90009F85A889B9898F3F2FEF92072FEFA2075E
:101FA0002FEFB20751F00196A11DB11D8E879F87BB
:101FB000A88BB98B8D8181608D83860175018A899B
:101FC0009B89AC89BD89E816F9060A071B0708F446
:101FD000B9CF80E003C082E001C081E0DF91CF9102
:101FE0001F910F91FF90EF90DF90CF90BF90AF9037
:101FF0000895DF93CF93CDB7DEB727970FB6F89448
:10200000DEBF0FBECDBF9C838B837E836D837A83BF
:102010006983CE0101964F830E94DF044F8197FDB3
:1020200025C0FC01EE0FFF1FEB5FFE4F0190F0811A
:10203000E02D309709F01082EB81FC81309709F098
:102040001082DC01AA0FBB1FAB5FBE4F1196FC9341
:10205000EE93309769F0413059F4CE010396BE01FA
:102060006B5F7F4F40E00E94020603C08BE001C01F
:1020700080E027960FB6F894DEBF0FBECDBFCF919C
:10208000DF9108952F923F924F925F926F927F92CD
:102090008F929F92AF92BF92CF92DF92EF92FF9278
:1020A0000F931F93DF93CF93CDB7DEB7A4970FB6EF
:1020B000F894DEBF0FBECDBF7C017CA36BA300975D
:1020C00009F4CDC0FC01118210825FE1B52EB4226B
:1020D0008E01035F1F4F4E71C801BE016D5D7F4FC2
:1020E0000E940206A82E882309F0BBC0CE010196EB
:1020F0009AA389A36BA17CA1C8010E94E30D0F8D57
:1021000018A1882321F40115110509F486E02B2D6F
:1021100030E0A9014C7150704115510509F459C0C6
:10212000882371F0843021F4CE010D960E94030FB4
:102130000F8D18A1882309F090C0F8E0BF2A07C0CE
:10214000F8018385817109F0AAC0B2FCA4C0B3FE76
:102150004BC0F80116861786108A118A1386148ED2
:10216000158E168E178EED85FE858081B8010E9432
:102170000E093B014C01C80140E050E0BA010E9449
:1021800097048D859E8521E0FC01248361147104F0
:102190008104910449F122A433A444A455A4B401B8
:1021A000A3010E94850F882309F057C08D859E8565
:1021B00008946108710881089108FC0162867386A1
:1021C00084869586B201A1010E948A05882361F068
:1021D00044C0882309F041C0F801838584FD5DC0B7
:1021E000B1FE02C080FD5BC0B3FE02C0F0E2BF2AB8
:1021F000CD84DE84F60182A593A5A4A5B5A5F7013B
:10220000828F938FA48FB58F178F068FB48215821C
:10221000F6018081B8010E940E09F7016687778771
:10222000808B918BF801848D958DA68DB78DF701EC
:1022300082879387A487B5871682178210861186B6
:10224000168A178A108E118ED182C082F60186817D
:102250009781F7019383828304C0A82E02C039E0DE
:10226000A32E8A2DA4960FB6F894DEBF0FBECDBF65
:10227000CF91DF911F910F91FF90EF90DF90CF9062
:10228000BF90AF909F908F907F906F905F904F9096
:102290003F902F90089588E0E0CF84E0DECF87E084
:1022A000DCCF2F923F924F925F926F927F928F92EC
:1022B0009F92AF92BF92CF92DF92FF920F931F93A4
:1022C000DF93CF9300D000D000D0CDB7DEB79E8390
:1022D0008D836A013A832983D9011D921C926B83F5
:1022E0007C830E940805F82E6B817C81882309F08D
:1022F0003CC1ED81FE81F580FF2009F036C184816B
:1023000080FF31C182859385A485B585268137817B
:1023100040855185821B930BA40BB50B960140E0C1
:1023200050E082179307A407B50708F46C01262E26
:10233000372E14C1AD81BE8116962D913D914D91E0
:102340005C911997DA01C9019170A070B070009783
:10235000A105B10509F0ABC0ED81FE8180819181BD
:1023600049015A0109E0B694A794979487940A9575
:10237000D1F7DC0112960C9112970150082141F51A
:10238000211531054105510529F466857785808938
:10239000918908C0ED81FE814289538964897589DC
:1023A0000E945609623071058105910508F16F3F61
:1023B000BFEF7B07BFEF8B07BFEF9B0709F48BC015
:1023C000AD81BE8152966D937D938D939C9355976D
:1023D000ED81FE818080918042895389648975896D
:1023E000C4010E942709611571058105910549F411
:1023F00082E0AD81BE8115968C93159712E0F12E87
:10240000B4C02B013C01400E511C611C711C5601D3
:10241000AB2CBB24A694A114B10409F442C0F4016E
:10242000828110E09501200F311F90E08217930701
:1024300018F45C01A01AB10AD40111968C91B10173
:10244000A301920185010E940703882309F043C07C
:10245000AD81BE81ED91FC91119784818823E1F0DB
:1024600082A593A5A4A5B5A584199509A609B709C0
:10247000950140E050E082179307A407B50760F488
:10248000982F8827990FBF01625D7F4F820D931DA2
:1024900040E052E00E946C048501102F0027110FCC
:1024A0003EC0ED81FE81468A578A608E718EAD8175
:1024B000BE8116968D909D90AD90BC9019975696C2
:1024C0004D915D916D917C9159978D919C910E9458
:1024D0008A05882339F081E0ED81FE818583FF2420
:1024E000F39443C0C401917020E032E0281B390B03
:1024F00086012C153D0508F48901AD81BE816D91E1
:102500007C911197625D7F4F16968D919C911797E4
:102510009170680F791FC101A8010E946C04200E00
:10252000311E980140E050E0ED81FE818681978167
:10253000A085B185820F931FA41FB51F8683978343
:10254000A087B187A981BA818D919C911197800F45
:10255000911F11969C938E93C01AD10AC114D10475
:1025600009F0E8CE02C067E0F62E8F2D26960FB652
:10257000F894DEBF0FBECDBFCF91DF911F910F91B9
:10258000FF90DF90CF90BF90AF909F908F907F9003
:102590006F905F904F903F902F9008952F923F92B1
:1025A0004F925F926F927F928F929F92AF92BF9263
:1025B000CF92DF92EF92FF920F931F93DF93CF930F
:1025C00000D000D0CDB7DEB79C838B833A011901D0
:1025D000D9011D921C9269837A830E940805F82E06
:1025E00069817A81882309F0BBC1EB81FC81F58088
:1025F000FF2009F0B5C1848181FFB0C126813781F8
:1026000040855185C301A0E0B0E0820F931FA41F55
:10261000B51F82179307A407B50710F46624772423
:10262000462E572E7AC1AB81BC8116962D913D91D5
:102630004D915C911997DA01C9019170A070B07049
:102640000097A105B10509F00CC1AB81BC81ED91EA
:10265000FC911197CA01B90119E096958795779574
:1026600067951A95D1F7E280EA94E62209F048C00E
:10267000211531054105510581F41E966D917D911D
:102680008D919C9151976115710581059105B1F46A
:10269000CF0140E050E0BA0109C0AB81BC81529645
:1026A0004D915D916D917C915597CF010E94E00B0A
:1026B000611571058105910509F433C1613071051A
:1026C0008105910509F449C06F3FFFEF7F07FFEFD8
:1026D0008F07FFEF9F0709F4AFC0EB81FC81628B8E
:1026E000738B848B958B268537854089518921157D
:1026F00031054105510521F466877787808B918BE1
:10270000AB81BC81ED91FC91119762A573A584A565
:1027100095A556962D913D914D915C9159976217D3
:1027200073078407950731F4CF010E94270588239A
:1027300009F0ABC0AB81BC810D911C9111975296F1
:102740004D915D916D917C915597C8010E9427092B
:10275000611571058105910539F482E0EB81FC81F9
:10276000858342E0F42EFCC04B015C018E0C911C71
:10277000A11CB11C6301CD2CDD24C694C114D1046D
:1027800009F446C0D80112962C9112978E2D90E034
:10279000A601480F591F30E02417350718F46901C6
:1027A000C81AD90AF8018181B201A50194018601F4
:1027B0000E945403882309F03FC0AB81BC81ED9196
:1027C000FC91119762A573A584A595A5681979094F
:1027D0008A099B09960140E050E06217730784075D
:1027E000950788F4762F6627770F640D751DCF0146
:1027F0008E9640E052E00E946C04AB81BC81ED916A
:10280000FC91119714828601102F0027110F67C0C9
:10281000EB81FC81268137814085518582859385B6
:10282000A485B585281739074A075B07A0F0C801BA
:102830000E942705882339F081E0AB81BC81159681
:102840008C93159726C0AB81BC81ED91FC9182A63B
:1028500093A6A4A6B5A6EB81FC81868A978AA08E52
:10286000B18EAB81BC8116968D909D90AD90BC9041
:10287000199756964D915D916D917C9159978D91D7
:102880009C910E948A05882339F081E0EB81FC81CC
:102890008583FF24F39464C0C401917020E032E08A
:1028A000281B390B83012615370508F48901AB81F4
:1028B000BC812D913C911197225D3F4F16968D91D1
:1028C0009C9117979170820F931FB201A8010E94EB
:1028D0006C04AB81BC81ED91FC91B1E0B483400EFE
:1028E000511E980140E050E0EB81FC818681978188
:1028F000A085B185820F931FA41FB51F8683978380
:10290000A087B187D1018D919C911197800F911F64
:1029100011969C938E93601A710A6114710409F0E8
:1029200082CEEB81FC8186819781A085B18522854D
:10293000338544855585281739074A075B0720F4F6
:1029400082879387A487B587AB81BC8114968C91CD
:102950001497806214968C93149702C087E0F82E27
:102960008F2D0F900F900F900F90CF91DF911F91AF
:102970000F91FF90EF90DF90CF90BF90AF909F901E
:102980008F907F906F905F904F903F902F90089521
:102990000F931F93CF93DF93EC010E9408058823C8
:1029A000A1F59C8195FF31C04A8D5B8D6C8D7D8D2D
:1029B000888199810E948A05882339F50E8D1F8DA3
:1029C000F8018385806283878A859B85AC85BD8578
:1029D000848F958FA68FB78F4E855F85688979899B
:1029E000C8010E949704F801168A178A108E118E6A
:1029F000138A128A8C818F7D8C83E881F98181E032
:102A00008483888199810E949E08DF91CF911F91D4
:102A10000F910895CF93DF93EC010E94C81488238F
:102A200039F4CE010E940805882311F41982188216
:102A3000DF91CF9108952F923F924F925F926F92C4
:102A40007F929F92AF92BF92CF92DF92EF92FF92CE
:102A50000F931F93DF93CF9300D000D000D0CDB75A
:102A6000DEB79E838D837A018B010E940805982E24
:102A7000882309F085C1AD81BE8115969C9015977C
:102A8000992009F07DC11A968D919D910D90BC9170
:102A9000A02D8E159F05A007B10738F4ED81FE81AA
:102AA000248121FD02C07C018D01ED81FE818681A2
:102AB0009781A085B1851682178210861186E11450
:102AC000F1040105110509F42AC120803180F101CA
:102AD000A280BB24CC24DD2449E0AA0CBB1CCC1C66
:102AE000DD1C4A95D1F70097A105B105F1F12C0144
:102AF0003D0108944108510861087108C801B701F7
:102B00006150704080409040A60195010E94C61E11
:102B100029833A834B835C83C301B201A6019501EB
:102B20000E94C61E89819A81AB81BC81821793075E
:102B3000A407B507D0F088279927DC018A199B09DB
:102B4000AC09BD0984219521A621B721ED81FE8123
:102B500086839783A087B187E81AF90A0A0B1B0BB3
:102B6000428953896489758938C0AD81BE811E96BA
:102B70004D915D916D917C91519741155105610584
:102B8000710519F5C10140E050E0BA010E94E00B67
:102B9000AB01BC01413051056105710521F482E0B2
:102BA000ED81FE815EC04F3FFFEF5F07FFEF6F07D4
:102BB000FFEF7F0721F481E0AD81BE8137C0ED8159
:102BC000FE8146875787608B718BAD81BE8152969F
:102BD0004D935D936D937C93559741155105610518
:102BE000710509F49CC04D805E8059C0F2012481BA
:102BF0008081918121FF0AC00E94E00BAB01BC01E2
:102C0000411551056105710529F452C00E9456090C
:102C1000AB01BC014F3FFFEF5F07FFEF6F07FFEF17
:102C20007F0751F45E824D8281E0D20115968C932C
:102C3000159799249394A4C04230510561057105FC
:102C400060F0D201ED91FC9182899389A489B589C4
:102C5000481759076A077B0740F05E824D8282E081
:102C6000F201858332E0932E8BC0D20152964D93B0
:102C70005D936D937C93559716968D919D910D90D4
:102C8000BC91A02D8A0D9B1DAC1DBD1DF20186833C
:102C90009783A087B187EA18FB080C091D09AE14B9
:102CA000BF04C006D10608F4A1CF5E824D8204C0E5
:102CB0005E824D8286017501ED81FE81868197815C
:102CC000A085B1858E0D9F1DA01FB11F86839783A0
:102CD000A087B187D801C7019170A070B07000972C
:102CE000A105B105E1F0808191810E94270961155C
:102CF00071058105910539F482E0AD81BE8115969B
:102D00008C931597AFCF29E016950795F794E79424
:102D10002A95D1F7E60EF71E081F191F03C0EE24EF
:102D2000FF248701ED81FE81268137814085518511
:102D3000DA01C9019170A070B0700097A105B105CA
:102D400069F086899789A08DB18DE816F9060A0782
:102D50001B0721F0E68AF78A008F118FED81FE8133
:102D600082859385A485B58582179307A407B50747
:102D700038F422873387448755878481806284832F
:102D8000892D26960FB6F894DEBF0FBECDBFCF912A
:102D9000DF911F910F91FF90EF90DF90CF90BF9048
:102DA000AF909F907F906F905F904F903F902F904B
:102DB00008950F931F93DF93CF93CDB7DEB760973E
:102DC0000FB6F894DEBF0FBECDBF8C01788B6F8736
:102DD000009709F444C0CE010196BE01615F7F4FA8
:102DE00040E00E9402068823B1F589819A81F801AA
:102DF00091838083CE010396958B848B6F85788930
:102E0000C8010E94E30D882301F5F80162897389E6
:102E10006115710571F0FB01838584FF1BC0E98199
:102E2000FA8180810E940E09F8016683778380878A
:102E30009187E981FA8186819781F8019383828362
:102E4000C80160E070E00E941E0A843019F08823F7
:102E500039F001C085E0F8011182108201C089E0DB
:102E600060960FB6F894DEBF0FBECDBFCF91DF9155
:102E70001F910F910895CF93DF93EC010E940805F5
:102E8000882311F419821882DF91CF910895DF927F
:102E9000EF92FF920F931F93DF93CF93CDB7DEB7DF
:102EA0002C970FB6F894DEBF0FBECDBF8C017B010F
:102EB0000E940805D82E882371F5E114F10431F43D
:102EC000C80160E070E00E941E0A24C09E012F5FCE
:102ED0003F4FF801358B248BC8010E944F0F84307F
:102EE00031F4F80116861786108A118A02C08823E9
:102EF00089F4C801B7010E949D04C80160E070E038
:102F00000E94C90C843031F4F80116861786108AA5
:102F1000118A01C0D82E8D2D2C960FB6F894DEBFE5
:102F20000FBECDBFCF91DF911F910F91FF90EF901A
:102F3000DF900895DF92EF92FF920F931F93DF933C
:102F4000CF93CDB7DEB7A4970FB6F894DEBF0FBE10
:102F5000CDBF9CA38BA37B018E01035F1F4FC801D4
:102F6000BE016D5D7F4F40E00E940206D82E88238F
:102F7000D9F4CE0101969AA389A36BA17CA1C801C3
:102F80000E94E30DD82E882379F42F8D38A12115C6
:102F9000310541F0E114F10439F0C801B7010E9494
:102FA0009D0402C056E0D52E8D2DA4960FB6F89440
:102FB000DEBF0FBECDBFCF91DF911F910F91FF906C
:102FC000EF90DF9008952F923F924F925F926F9211
:102FD0007F928F929F92AF92BF92CF92DF92EF92A9
:102FE000FF920F931F93DF93CF9300D000D000D0B8
:102FF000CDB7DEB79A8389837C836B838A01CA014C
:10300000BE016F5F7F4F40E00E940206382EF8013C
:1030100000811181882309F0BAC0F801868597855F
:10302000A089B1894288538864887588A301920178
:103030002250304040405040281739074A075B076C
:1030400038F0EB81FC8180839183A283B3839FC09E
:10305000F8012080F22DF130B1F572E0872E912C2D
:10306000A12CB12CCC24DD247601C801B501A4012A
:103070000E9456096F3F2FEF72072FEF82072FEF45
:10308000920709F46FC0613071058105910509F45B
:103090006CC0611571058105910529F40894C11C66
:1030A000D11CE11CF11C0894811C911CA11CB11CB9
:1030B000F80182899389A489B58988169906AA0698
:1030C000BB0698F256C0F801868C978CA0A0B1A0E0
:1030D000E0E0F0E020E030E0CC24DD247601C8011F
:1030E0008E969E838D832115310581F4C801B5012B
:1030F000A4010E948A058823D9F50894811C911C9B
:10310000A11CB11CED81FE8120E032E0922D9230B5
:1031100069F480819181009729F40894C11CD11C25
:10312000E11CF11C32962250304011C08081918107
:10313000A281B381BF700097A105B10529F408945D
:10314000C11CD11CE11CF11C349624503040089461
:103150004108510861087108411451046104710467
:1031600011F607C03324339404C062E0362E01C048
:10317000382EF801C686D786E08AF18A858181607B
:103180008583EB81FC81C082D182E282F382832D30
:1031900026960FB6F894DEBF0FBECDBFCF91DF915C
:1031A0001F910F91FF90EF90DF90CF90BF90AF9065
:1031B0009F908F907F906F905F904F903F902F9057
:1031C0000895CF92DF92EF92FF920F931F93CF93C8
:1031D000DF93EC010E940805182F882309F050C0E6
:1031E0001D81112309F04CC06C8161FD53C017E0B3
:1031F00047C02A873B874C875D8760626C838881E4
:103200009981211531054105510561F44E855F8590
:10321000688979890E94850F182F1E861F86188A53
:10322000198A2CC04A895B896C897D890E9456095C
:103230006B017C018FEFC8168FEFD8068FEFE80681
:103240008FEFF806B1F1E1E0CE16D104E104F1040C
:10325000A1F531C04A895B896C897D890FEF1FEF29
:103260002FEF3FE00E94F80A182F882341F488814D
:103270009981B701A6010E94850F182F11111D8396
:10328000812FDF91CF911F910F91FF90EF90DF90F1
:10329000CF9008952E813F81488559858A859B85E9
:1032A000AC85BD85281739074A075B0708F4A1CF0D
:1032B000E7CF11E0E4CF12E0E2CF88819981FC01F1
:1032C0002289338944895589C216D306E406F50656
:1032D000B8F6C0CFCF92DF92EF92FF920F931F9379
:1032E000DF93CF93CDB7DEB7EB970FB6F894DEBF81
:1032F0000FBECDBF9AAF89AF8E01035F1F4FC801CC
:10330000BE01675C7F4F41E00E940206282F8823A0
:1033100009F06AC0CE0101969AA389A369AD7AAD7E
:10332000C8010E94E30D282F882309F05DC0CF8CCF
:10333000D8A0C114D10429F0F601838580FD03C013
:1033400003C026E001C027E0ED85FE858081B6013F
:103350002BAF0E940E097B018C012BAD222309F0BB
:1033600043C0F601838584FF4FC0F2E0EF16F104FD
:103370000105110510F1E3E2CE2ED12CCC0EDD1E9D
:10338000C601BE01635F7F4F46E150E00E946C04BE
:10339000E9A6FAA60BA71CA7C60162E070E00E948E
:1033A0001E0A282F882301F5C6010E944F0F282FDF
:1033B000882329F0843041F117C022E015C027E0AE
:1033C00013C0E114F1040105110549F08D859E85B6
:1033D000B801A7010E94850F282F882329F48D8525
:1033E0009E850E949E08282F822FEB960FB6F89498
:1033F000DEBF0FBECDBFCF91DF911F910F91FF9028
:10340000EF90DF90CF900895CE010D960E94CD0AE7
:10341000282F8823B1F2E8CF5F926F927F928F922C
:103420009F92AF92BF92CF92DF92EF92FF920F9353
:103430001F93DF93CF93CDB7DEB7A5970FB6F89460
:10344000DEBF0FBECDBF9CA38BA38E01035F1F4FBA
:10345000C801BE016D5D7F4F41E00E940206282F2A
:10346000882309F0CDC0CE0101969AA389A36BA150
:103470007CA1C8010E94E30D282F882309F4BFC056
:10348000843009F0BDC08D859E8540E050E0BA01D2
:103490000E94E00B7B018C0161157105810591058E
:1034A00009F4C5C081E0E816F1040105110509F42D
:1034B000C0C0EFEFEE16EFEFFE06EFEF0E07EFEFF7
:1034C0001E0709F4B8C0B9C0CD84DE84C601B801B6
:1034D000A7010E9427093B014C01AEE2AA2EB12CA4
:1034E000AC0CBD1CC50160E070E040E052E00E9401
:1034F0008C04C50160E270E04BE050E00E948C0457
:10350000FEE25F2EF60156A680E181AFEC5BFF4F35
:103510001082118212821382C501B801A7010E9494
:103520009704C601825B9F4FB50140E250E00E94C4
:103530006C04F601E15BFF4F50824B895C896D8919
:103540007E89ED85FE858081833061F482A193A11F
:10355000A4A1B5A1481759076A077B0719F440E0F1
:1035600050E0BA01C601825B9F4F0E949704ED852F
:10357000FE85C280552453941AC08D859E85FC011A
:1035800062A673A684A695A654820E942705282FBA
:103590008823B1F40894611C711C811C911CC50125
:1035A00060E070E040E052E00E948C04CA94CC20BD
:1035B00021F7CE010D960E94030F282F882349F092
:1035C0008D859E85B801A7012DA30E94850F2DA191
:1035D00017C08F8D98A120E1FC012387168A178AD6
:1035E000108E118EB801A7010E9497048D859E85CB
:1035F00021E0FC0124830E949E08282F01C028E0BE
:10360000822FA5960FB6F894DEBF0FBECDBFCF9127
:10361000DF911F910F91FF90EF90DF90CF90BF90BF
:10362000AF909F908F907F906F905F90089527E06C
:10363000C7CF22E0C5CF21E0C3CF8D859E850E94F4
:103640002705282F882309F43FCFBACFEF92FF92A6
:103650000F931F93DF93CF93CDB7DEB7A4970FB629
:10366000F894DEBF0FBECDBF9CA38BA3F62EE42E35
:103670008E01035F1F4FC801BE016D5D7F4F41E0AA
:103680000E940206882311F5CE0101969AA389A310
:103690002BA13CA1C801B9010E94E30D8823B1F41C
:1036A000EF8DF8A1309789F087E2E8228E2D809582
:1036B00093858923EF208E2983878D859E8521E040
:1036C000FC0124830E949E0801C086E0A4960FB6E8
:1036D000F894DEBF0FBECDBFCF91DF911F910F9148
:1036E000FF90EF900895EF92FF920F931F93DF9357
:1036F000CF93CDB7DEB7A4970FB6F894DEBF0FBE59
:10370000CDBF9CA38BA37B018E01035F1F4FC8011C
:10371000BE016D5D7F4F41E00E940206882329F5BE
:10372000CE0101969AA389A36BA17CA1C8010E9436
:10373000E30D8823D1F4EF8DF8A13097A9F0D701DC
:1037400016968D919C911797978B868B14968D91D9
:103750009C911597918F808F8D859E8521E0FC012E
:1037600024830E949E0801C086E0A4960FB6F894B8
:10377000DEBF0FBECDBFCF91DF911F910F91FF90A4
:10378000EF900895CF92DF92EF92FF920F931F93E5
:10379000DF93CF93CDB7DEB7C155D0400FB6F894C5
:1037A000DEBF0FBECDBF8E01025B1F4FF8019183BC
:1037B000808380E5C82ED12CCC0EDD1EF6017183EE
:1037C0006083B2E2EB2EF12CEC0EFD1EC701B801B6
:1037D00041E00E940206882309F0C0C08AA19BA193
:1037E00099AF88AFCE0101969FAB8EABF801608197
:1037F0007181C7010E94E30D882309F0AFC06CA955
:103800007DA96115710509F4A4C0655F7F4FCE01E4
:103810000D9645E150E00E946C048E01085C1F4F3C
:10382000C801B70146E150E00E946C04C6010E9445
:10383000DF0497FD90C0F60160817181C8010E948C
:10384000E30D882309F489C0843009F087C0C801DA
:103850000E94030F882309F081C0FE01E65BFF4F41
:1038600000811181C8010D96BE01615F7F4F43E168
:1038700050E00E946C048D858062F8018387EAA085
:10388000FBA081E0F701848328A539A54AA55BA5A3
:10389000FE01FE9680819181A281B38128173907AC
:1038A0004A075B0709F44AC0F801838584FF46C0D4
:1038B000F7018081B8010E940E09AB01BC01C7016C
:1038C0000E942709AB01BC01411551056105710535
:1038D00009F454C0C7010E948A05EAA1FBA188230C
:1038E000E9F5DF01A15BBF4F8C918E3239F5808104
:1038F000833081F4DE01DE966D917D918D919C91F6
:10390000139722A133A144A155A16217730784071D
:10391000950741F0DE01DE964D915D916D917C91B0
:10392000139703C040E050E0BA01CF01825B9F4F84
:103930000E949704EAA1FBA181E08483CE018296D4
:103940000E94CD0A882351F48AA19BA10E949E085F
:1039500005C084E003C08BE001C088E0CF5ADF4F90
:103960000FB6F894DEBF0FBECDBFCF91DF911F9190
:103970000F91FF90EF90DF90CF90089582E0EECF0F
:1039800018BA88EB87BB81E58DB91EB808958FB949
:10399000779BFECF8FB10895DF93CF930F92CDB772
:1039A000DEB7C49869830E94C71C8093770369813E
:1039B000862F0E94C71CC49A0F90CF91DF91089563
:1039C000C4980E94C71C8093770380E00E94C71CA4
:1039D000C49A0895EF92FF920F931F93DF93CF93B2
:1039E0000F92CDB7DEB7162F042FC49879830E94AB
:1039F000C71C7981412F572F7A0106C080E00E94B1
:103A0000C71CF70181937F018E2D811B8017B0F3B6
:103A1000C49A0F90CF91DF911F910F91FF90EF907B
:103A20000895EF92FF920F931F93DF93CF930F921E
:103A3000CDB7DEB7162F042FC49879830E94C71C18
:103A4000809377037981412F572F7A0105C0F701C1
:103A500081917F010E94C71C8E2D811B8017B8F3B6
:103A6000C49A0F90CF91DF911F910F91FF90EF902B
:103A7000089582EE60E00E94CC1C87E00E94E01C6A
:103A8000682F87E20E94CC1CC39880E00E94E01C53
:103A9000682F616080E20E94CC1CC39A089581EE79
:103AA00060E00E94CC1CC39880E00E94E01C682F5C
:103AB0006E7F80E20E94CC1CC39A08951F93182F3A
:103AC00087E00E94E01C87FF03C0112319F006C0A5
:103AD000112321F080E563E50E94CC1C1F9108951D
:103AE000682F85E20E94CC1C0895CF92DF92EF925E
:103AF000FF920F931F93DF93CF93CDB7DEB72D9730
:103B00000FB6F894DEBF0FBECDBF8FE493EC0197E4
:103B1000F1F700C0000080E00E945E1D0CEC10E098
:103B2000F8018081806261810E94CC1C0E5F1F4F72
:103B3000F0E0043F1F07A1F734E3C32EC98223E45A
:103B4000D22EDA8290E1E92EEB82EC82FF24F3940C
:103B5000FD828AE28E010F5F1F4FB80145E00E948F
:103B6000111D89E3898388E38A8387E38B8386E356
:103B70008C8382EC8D838BE2B80145E00E94111D9D
:103B8000C982DA82EB82EC82FD8280E3B80145E0F3
:103B90000E94111D8DE10E94E01C882321F480E524
:103BA00063E70E94CC1C8DE367E00E94CC1C8CE391
:103BB0006FE30E94CC1C81E00E945E1D09E810E0CA
:103BC00090E07E010894E11CF11CF80121913191F3
:103BD000419151918F0129833A834B835C83892FD3
:103BE0008062B70144E09D870E94111D9D859F5F03
:103BF000993059F78DEAE82E80E0F82E8E010F5F9C
:103C00001F4FF70121913191419151917F015983CA
:103C10004A833B832C83892F8062B80144E09D87CF
:103C20000E94111D9D859F5F9E3059F7E1ECF0E0E9
:103C3000D80181918D9380E0EC3CF807D1F78EE2BA
:103C40008E010F5F1F4FB8014BE00E94111D86E9E6
:103C50008A8382E88B838BE18C838FED898384E276
:103C6000B80144E00E94111D8981897F898384E223
:103C7000B80144E00E94111DE3EDF0E33197F1F744
:103C800000C0000080E00E945E1D0E94391D2D963C
:103C90000FB6F894DEBF0FBECDBFCF91DF911F915D
:103CA0000F91FF90EF90DF90CF900895EF92FF92E9
:103CB0001F93DF93CF930F92CDB7DEB7182F7B0101
:103CC00049830E944F1D87E10E94E01C498185FDC8
:103CD0000AC0812FB7010E94111D87EA91E6019762
:103CE000F1F700C0000080E00F90CF91DF911F91AD
:103CF000FF90EF9008950F931F93CF93DF93EC0104
:103D000087E00E94E01C082F86FF16C080E60E9414
:103D1000E01C182F813230F481E6BE01412F0E9451
:103D2000EA1C04C082EE60E00E94CC1C87E10E9485
:103D3000E01C80FFEBCF01C010E087E2602F0E9403
:103D4000CC1C812FDF91CF911F910F910895629F1D
:103D5000D001739FF001829FE00DF11D649FE00D83
:103D6000F11D929FF00D839FF00D749FF00D659FE4
:103D7000F00D9927729FB00DE11DF91F639FB00DE3
:103D8000E11DF91FBD01CF0111240895A1E21A2EF2
:103D9000AA1BBB1BFD010DC0AA1FBB1FEE1FFF1FEF
:103DA000A217B307E407F50720F0A21BB30BE40B3F
:103DB000F50B661F771F881F991F1A9469F7609586
:103DC0007095809590959B01AC01BD01CF01089540
:043DD000F894FFCF95
:103DD400006E657766696C652E747874004974208A
:103DE400776F726B73210D0A0001222A2B2C3A3B48
:103DF4003C3D3E3F5B5D7C7F00404B01E2C04B009D
:103E040000D0FC8C0299003941D996821B24027F90
:103E1400A6000000000000000000000000000000F8
:103E2400000000000000000000007312000080B4D5
:103E340046412008048120CFF7FEFFFF000F013F19
:103E4400023F030304FF05330627070708000900A0
:103E54000CC30DC40EC50FC611201220132014204C
:103E64001520162017001C3F1D073443101001397C
:043E7400383736C2E3
:00000001FF
