:100000000C942A000C9447000C9447000C94470071
:100010000C9447000C9447000C9447000C94470044
:100020000C9447000C9447000C9447000C94470034
:100030000C9447000C9447000C9447000C94470024
:100040000C9447000C9447000C9447000C94470014
:100050000C94470011241FBECFE5D4E0DEBFCDBF16
:1000600011E0A0E6B0E0ECE7F8E102C005900D92E7
:10007000AC36B107D9F711E0ACE6B1E001C01D9292
:10008000AC37B107E1F70E94E8040C943C0C0C94E7
:1000900000001F93182F8A3019F48DE00E94490048
:1000A0005D9BFECF1CB980E090E01F9108958AB15E
:1000B00088698AB980B5866880BD85E089B910BC39
:1000C00080E690E0909379018093780108955D9B9C
:1000D000FECF8CB908955F9BFECF8CB190E0089560
:1000E000EF92FF92CF93DF93E82EE7017E01F92E86
:1000F000E70102C00E94670089918823D9F7DF9148
:10010000CF91FF90EF9008958FEF8ABB08958FB93C
:10011000779BFECF08958FEF8FB9779BFECF8FB17E
:100120000895C1980895C19A0895DF93CF9300D0A0
:1001300000D0CDB7DEB70E9405077A83698313C06C
:100140001C821B8205C08B819C8101969C838B83C2
:100150008B819C8121E080399207ACF389819A815F
:1001600001979A83898389819A81009749F70F9033
:100170000F900F900F90CF91DF91089580E58DB98A
:10018000709A60E070E080E291E40E94950008952A
:100190008FEB87BB82E58DB91EB860E070E080E22E
:1001A00091E40E94950008958BBBD89AD998DA9A69
:1001B00060E070E080E89FE30E949500DA9808957F
:1001C0008BBBD898D998DA9A60E070E080E89FE31A
:1001D0000E949500DA980895DF93CF9300D000D065
:1001E000CDB7DEB70E9405077A83698312C01C82EF
:1001F0001B8205C08B819C8101969C838B838B81A4
:100200009C8184309105B4F389819A8101979A8306
:10021000898389819A81009751F70F900F900F90F1
:100220000F90CF91DF9108950F931F938A01E09172
:100230006C01F0916D010288F389E02D0995C801E8
:100240001F910F910895CF92DF92EF92FF920F933B
:100250001F93CF93DF9380E092E00E943808AC01B7
:1002600060E070E0CB010E941401E82EE7017E01FE
:10027000F92EE7018881893E19F18B3E09F1F701DA
:10028000E250FE4F808191813AEA8535930709F06B
:1002900054C0F701E254FE4F6085718582859385D5
:1002A000E0916C01F0916D0160837183828393838F
:1002B000A7010E9414018881893E11F08B3EE9F567
:1002C00000916C0110916D018B859C85F8019587DB
:1002D00084878D8590E0978786878E859F85918B13
:1002E000808B8CA59DA5AEA5BFA580879187A28791
:1002F000B387C088D188EE24FF248C8D9D8DAE8D70
:10030000BF8DC80ED91EEA1EFB1E688970E080E012
:1003100090E02CA13DA14EA15FA10E94C007C60E96
:10032000D71EE81EF91EF801C482D582E682F78244
:10033000CE010E94D20880E001C081E0DF91CF9120
:100340001F910F91FF90EF90DF90CF900895EF9263
:10035000FF920F931F93E0916C01F0916D01268540
:100360003785E480F58006811781625070408040B7
:10037000904040E050E00E94C0079B01AC012E0D70
:100380003F1D401F511FB901CA011F910F91FF90DE
:10039000EF9008958F929F92AF92BF92CF92DF928B
:1003A000EF92FF920F931F93CF93DF935B016C014A
:1003B000C0916C01D0916D01E888F98882E0AA0CA7
:1003C000BB1CCC1CDD1C8A95D1F72C853D8500E03B
:1003D00010E088819981AA81BB81E80EF91E0A1F6D
:1003E0001B1F40E050E0C601B5010E94DF07E20E8E
:1003F000F31E041F151F8C849D848C859D850E948F
:100400003808AC01C801B7010E941401E82EE701C9
:100410007E01F92EE701940140E050E0C601B501EC
:100420000E94DF076E0D7F1DDB01ED90FD900D91A9
:100430001C918FEF9FEFAFEFBFE0E822F9220A2374
:100440001B23CE010E94D208B701C801DF91CF91D2
:100450001F910F91FF90EF90DF90CF90BF90AF90E2
:100460009F908F9008954F925F926F927F928F929C
:100470009F92AF92BF92CF92DF92EF92FF920F9333
:100480001F93CF93DF93582E492EE0916C01F0918A
:100490006D01A084B184C284D3845CC0C601B5015F
:1004A0000E94A7013B014C01E0916C01F0916D01AC
:1004B000848595850E943808AC01C401B3016E0D96
:1004C0007F1D801F911F0E941401E82FF92F9F01AB
:1004D00020503E4F1CC049915D914517E1F34423E4
:1004E00091F4E488F58800E010E08701FF24EE2411
:1004F000228D338D40E050E0E22AF32A042B152BA5
:100500000E94D20837C0B096E217F30741F0A2016B
:10051000852EE4014E01942CE401DF01DCCF0E9422
:10052000D2080894E11CF11C011D111DE0916C0121
:10053000F0916D0186859785A0E0B0E0E816F90698
:100540000A071B0708F4AACFC601B5010E94CA0119
:100550005B016C0166EFA6166FEFB6066FEFC6067D
:100560006FE0D60620F4EE24FF248701DFCFEE24CF
:10057000FF248701B701C801DF91CF911F910F912F
:10058000FF90EF90DF90CF90BF90AF909F908F90B3
:100590007F906F905F904F9008952F923F924F926F
:1005A0005F926F927F928F929F92AF92BF92CF9203
:1005B000DF92EF92FF920F931F93CF93DF930E94EE
:1005C00033025B016C010E94A7011B012C017B011E
:1005D0008C0145C0848595850E943808AC01C8010E
:1005E000B7010E941401982E892EC401692E782E1D
:1005F000C0E0D0E022C0D3018D913D018823C1F439
:10060000892D982D0E94D20880E0DF91CF911F9113
:100610000F91FF90EF90DF90CF90BF90AF909F90A1
:100620008F907F906F905F904F903F902F900895A4
:100630000488F589E02D09952196E0916C01F091EF
:100640006D0184859585C817D907A8F2892D982D45
:100650000E94D2080894E11CF11C011D111DE091BB
:100660006C01F0916D0186859785970122193309F8
:100670002817390708F4AECFC601B5010E94CA0198
:10068000A0CF2F923F925F926F927F928F929F9214
:10069000AF92BF92CF92DF92EF92FF920F931F9390
:1006A000DF93CF9300D00F92CDB7DEB7E0916C010E
:1006B000F0916D01A084B184C284D38477C0C60157
:1006C000B5010E94A7013B014C01E0916C01F09142
:1006D0006D01848595850E943808AC01C401B30181
:1006E0006E0D7F1D801F911F0E941401582E652DD5
:1006F000792F9B01212C42E0342E220E331ED9018A
:100700001B968C911B97803281F53901882499249E
:10071000E0916C01F0916D010488F589E02DD30121
:100720008D913D0129833A839B8309950894811C0F
:10073000911C29813A819B81BBE08B16910441F782
:10074000E0916C01F0916D010488F589E02D8AE05B
:100750000995E0916C01F0916D010488F589E02D17
:100760008DE009959B813A812981205E3F4F2215BA
:10077000330529F6852D0E94D2080894E11CF11C4E
:10078000011D111DE0916C01F0916D018685978529
:10079000A0E0B0E0E816F9060A071B0708F48FCFBF
:1007A000C601B5010E94CA015B016C01E6EFAE16FD
:1007B000EFEFBE06EFEFCE06EFE0DE0620F4EE240C
:1007C000FF248701DFCF80E00F900F900F90CF9133
:1007D000DF911F910F91FF90EF90DF90CF90BF902E
:1007E000AF909F908F907F906F905F903F902F90F1
:1007F00008951F93182FE0916E01F0916F0104800E
:10080000F581E02D807F0995E0916E01F0916F01F7
:100810000480F581E02D812F8295807F09951F91BD
:100820000895E0916E01F0916F010280F381E02D57
:10083000099582E00E94F90388E20E94F9038CE0A6
:100840000E94F90386E00E94F90380E80E94F90300
:1008500081E00E94F903E0916E01F0916F01019037
:10086000F081E02D60E070E08AEF93E4099508954F
:1008700080E80E94F903E0916E01F0916F01019010
:10088000F081E02D60E070E080E89FE30995089535
:1008900080EC0E94F903E0916E01F0916F010190EC
:1008A000F081E02D60E070E080E89FE30995089515
:1008B00081E00E94F903E0916E01F0916F010190D7
:1008C000F081E02D60E070E080E291E40995089508
:1008D0001F93182FE0916E01F0916F010680F78150
:1008E000E02D807F0995E0916E01F0916F01068007
:1008F000F781E02D812F8295807F09951F910895C2
:10090000EF92FF92CF93DF93E82EE7017E01F92E5D
:10091000E70102C00E94680489918823D9F7DF911A
:10092000CF91FF90EF90089588E090E00E94380802
:10093000FC0190936F0180936E0185E990E09183B3
:10094000808384E890E09383828384ED90E09783B2
:10095000868380EE90E0958384830E9411048CE06E
:1009600090E00E943808FC0190937101809370011F
:1009700087E890E0958384838BE890E09783868373
:1009800088EC90E0918380838EEB90E09383828368
:1009900081E990E09187808783E990E0938782875F
:1009A0000E94AF0586E190E00E943808FC01909318
:1009B0006D0180936C018AEF95E0938B828B87E6C3
:1009C00090E0958B848B0E9423010E94570008952C
:1009D000DF92EF92FF920F931F93CF93DF930E94CA
:1009E00094048EE690E00E9480040E9448048FE701
:1009F00090E00E94800480E990E00E94800986ECEB
:100A000090E00E9480098FE0E82E81E0F82E02E35A
:100A100011E08AED90E00E94800984EE90E00E944F
:100A200080098BEF90E00E94800900D0EDB7FEB7FF
:100A3000F282E1820E946B090F900F900E946B007E
:100A40008133910521F08233910519F709C00E9485
:100A5000580480E291E00E9480040E944103D9CFB3
:100A600000D0EDB7FEB7128301830E946B090F908F
:100A70000F90C9E0D0E00E946B00D82E0E94670062
:100A8000FD2DFD3011F02197B1F70E9458048AE442
:100A900091E00E9480048BE591E00E94CD02B9CFE5
:100AA0001F93DF93CF9300D000D0CDB7DEB7182FC0
:100AB000E0917001F09171010480F581E02D806476
:100AC0004C835B836A8379830995E0917001F0918F
:100AD00071010480F581E02D7981872F0995E091DE
:100AE0007001F09171010480F581E02D6A81862FFB
:100AF0000995E0917001F09171010480F581E02D7C
:100B00005B81852F0995E0917001F091710104805E
:100B1000F581E02D4C81842F0995E0917001F091D1
:100B20007101183029F40480F581E02D87E804C0B4
:100B30000480F581E02D85E90995E0917001F0913F
:100B400071010680F781E02D09958F3FB1F30F9079
:100B50000F900F900F90CF91DF911F910895E0912A
:100B60007001F09171010190F081E02D0995E09103
:100B70007001F09171010084F185E02D099580E00C
:100B800040E050E0BA010E9450058130C1F788E092
:100B90004AEA51E060E070E00E9450058130B9F708
:100BA00087E340E050E0BA010E945005882349F0F5
:100BB00089E240E050E060E070E40E945005882344
:100BC00079F78AE340E050E0BA010E94500588239B
:100BD000C1F7E0917001F09171010284F385E02D7D
:100BE0000995E0917001F09171010280F381E02D8F
:100BF00009950895CF92DF92EF92FF920F931F9382
:100C0000CF93DF937B018C016A0189E0EE0CFF1C1E
:100C1000001F111F8A95D1F7E0917001F0917101C9
:100C20000084F185E02D099581E1B801A7010E94BA
:100C300050058823C9F7E0917001F0917101068099
:100C4000F781E02D09958E3FB1F7EC2CFD2CC0E02B
:100C5000D0E0E0917001F09171010680F781E02D04
:100C60000995F70181937F012196F2E0C030DF07FB
:100C700081F7E0917001F09171010680F781E02D1C
:100C80000995E0917001F09171010680F781E02DE6
:100C90000995E0917001F09171010284F385E02DD6
:100CA0000995DF91CF911F910F91FF90EF90DF9009
:100CB000CF900895CF92DF92EF92FF920F931F9300
:100CC000DF93CF930F92CDB7DEB77B018C016A0122
:100CD00099E0EE0CFF1C001F111F9A95D1F7E091CF
:100CE0007001F09171010084F185E02D099588E192
:100CF000B801A7010E9450058823C9F7E09170014F
:100D0000F09171010480F581E02D8EEF0995EC2CB6
:100D1000FD2C00E010E0E0917001F0917101048081
:100D2000F581E02DD7018D917D0109950F5F1F4F52
:100D3000B2E000301B0779F7E0917001F09171018A
:100D40000480F581E02D8FEF0995E0917001F0911D
:100D500071010480F581E02D8FEF0995E09170011C
:100D6000F09171010680F781E02D0995982F9F7110
:100D7000953059F0E0917001F09171010284F38592
:100D8000E02D89830995898136C0E0917001F09149
:100D900071010680F781E02D09958823B1F3E09178
:100DA0007001F09171010284F385E02D0995E091C5
:100DB0007001F09171010480F581E02D8FEF0995AC
:100DC000E0917001F09171010084F185E02D0995A9
:100DD000E0917001F09171010680F781E02D099595
:100DE0008823B1F3E0917001F09171010284F385E1
:100DF000E02D099580E00F90CF91DF911F910F9129
:100E0000FF90EF90DF90CF900895ACE0B0E0EBE082
:100E1000F7E00C94110869837A838B839C83CE015D
:100E20000196BE016B5F7F4F0E9457078D81823014
:100E300081F1823070F1843021F48E81882369F150
:100E40000AC02F81388537FD24C06E812F313105CE
:100E50003CF0662311F120E030E040E050E821C092
:100E60008EE190E0821B930B29853A854B855C854A
:100E700004C056954795379527958A95D2F76623EE
:100E800081F050954095309521953F4F4F4F5F4FE2
:100E900008C020E030E0A90104C02FEF3FEF4FEF82
:100EA0005FE7B901CA012C96E2E00C942D08DC0141
:100EB000FB012C9111963C91119712968C911297EF
:100EC000482F4F7750E0982F991F9927991F139615
:100ED0006C911397862F880F892B90E0661F6627E9
:100EE000661F6183009739F52115310541055105CC
:100EF00011F482E029C082E89FEF9383828367E048
:100F0000220F331F441F551F6A95D1F783E080835A
:100F100009C0220F331F441F551F828193810197FF
:100F200093838283203080E0380780E0480780E4A4
:100F3000580778F320C08F3F910579F421153105CA
:100F40004105510519F484E08083089544FF03C0EE
:100F500081E0808310C010820EC08F579040938331
:100F6000828383E0808387E0220F331F441F551F55
:100F70008A95D1F750642483358346835783089537
:100F8000629FD001739FF001829FE00DF11D649F6D
:100F9000E00DF11D929FF00D839FF00D749FF00DF9
:100FA000659FF00D9927729FB00DE11DF91F639F9A
:100FB000B00DE11DF91FBD01CF0111240895A1E27B
:100FC0001A2EAA1BBB1BFD010DC0AA1FBB1FEE1FC3
:100FD000FF1FA217B307E407F50720F0A21BB30B0E
:100FE000E40BF50B661F771F881F991F1A9469F78A
:100FF00060957095809590959B01AC01BD01CF01E6
:1010000008952F923F924F925F926F927F928F92AC
:101010009F92AF92BF92CF92DF92EF92FF920F9387
:101020001F93CF93DF93CDB7DEB7CA1BDB0B0FB691
:10103000F894DEBF0FBECDBF09942A88398848884E
:101040005F846E847D848C849B84AA84B984C884E4
:10105000DF80EE80FD800C811B81AA81B981CE0FDB
:10106000D11D0FB6F894DEBF0FBECDBFED010895C0
:10107000CF93DF938230910510F482E090E0E0910D
:101080007401F091750140E050E020E030E026C0AE
:101090006081718168177907E0F06817790781F43A
:1010A000828193812115310531F0D90113969C93EA
:1010B0008E9312972BC0909375018093740126C074
:1010C0004115510519F06417750718F4AB01E901D2
:1010D000DF019F0172816381E72FF62F3097C1F600
:1010E0004115510501F1481B590B4430510580F45D
:1010F00012968D919C911397209719F09B838A8368
:1011000004C09093750180937401FD01329646C02E
:10111000FD01E40FF51F81939193425050401196C9
:101120005C934E933BC02091720130917301211565
:10113000310541F4209167013091680130937301CA
:10114000209372012091690130916A0121153105C6
:1011500041F42DB73EB74091650150916601241BC3
:10116000350BE0917201F0917301E217F307A0F4DF
:101170002E1B3F0B2817390778F0AC014E5F5F4FED
:101180002417350748F04E0F5F1F509373014093AB
:1011900072018193919302C0E0E0F0E0CF01DF9112
:1011A000CF910895CF93DF93009709F491C0FC018C
:1011B00032971382128260917401709175016115EA
:1011C000710581F420813181280F391F80917201CE
:1011D000909173018217930799F5F0937301E0934F
:1011E000720176C0DB0180E090E002C0CD01D90140
:1011F000AE17BF0748F412962D913C911397211515
:101200003105A1F7CD0121C0B383A283EF0149913C
:1012100059919E01240F351FA217B30779F42D9120
:101220003C911197240F351F2E5F3F4F3183208350
:1012300012962D913C91139733832283009729F4C2
:10124000F0937501E093740143C0DC011396FC93A5
:10125000EE9312974D915D91A40FB51FEA17FB070E
:1012600069F420813181240F351F2E5F3F4FEC013F
:1012700039832883228133813B832A83E0E0F0E0B5
:1012800002C0FB01BC01DB0112968D919C9113976A
:101290000097B9F79B012E5F3F4F8D919C9111975D
:1012A000820F931F409172015091730148175907A3
:1012B00079F4309729F4109275011092740102C0EC
:1012C00013821282225030403093730120937201B6
:1012D000DF91CF910895A0E0B0E0E1E7F9E00C9450
:1012E0001108FE013596619171918091780190917C
:1012F0007901AF010E94B5092096E2E00C942D0817
:10130000EF92FF920F931F93CF93DF938C01E091A5
:101310007801F0917901838181FF1FC0C0E0D0E0A6
:101320000AC0DB011896ED91FC9119970995009779
:1013300011F0CFEFDFEFF80181918F01609178011B
:1013400070917901882369F7DB011896ED91FC9182
:1013500019978AE00995009711F0CFEFDFEFCE01E2
:10136000CDB7DEB7E6E00C942908ACE0B0E0EBEBDB
:10137000F9E00C9401086C011B018A01FC01178241
:101380001682838181FFD1C12E010894411C511C1A
:10139000F6019381F10193FD859193FF81911F01E6
:1013A000882309F4BEC1853239F493FD859193FFFA
:1013B00081911F01853229F490E0B6010E94B20BA1
:1013C000E7CFEE24FF2420E02032B0F48B3269F026
:1013D0008C3228F4803251F0833271F40BC08D329C
:1013E00039F0803349F421602CC02260246029C088
:1013F000286027C0206125C027FD2CC0382F30531E
:101400003A3098F426FF08C08E2D880FE82EEE0C97
:10141000EE0CE80EE30E15C08F2D880FF82EFF0C92
:10142000FF0CF80EF30E20620CC08E3221F426FD64
:1014300078C1206406C08C3611F4206802C088365A
:1014400049F4F10193FD859193FF81911F01882358
:1014500009F0BACF982F9554933018F090529330EA
:1014600028F40C5F1F4FFFE3F9830DC0833631F082
:10147000833771F0833509F060C022C0F8018081A4
:1014800089830E5F1F4F420171E0A72EB12C16C059
:1014900062E0662E712C600E711EF80180809180D2
:1014A00026FF03C06E2D70E002C06FEF7FEFC40116
:1014B0002C870E94A70B5C0183012C852F7717C016
:1014C00052E0652E712C600E711EF80180809180B3
:1014D00026FF03C06E2D70E002C06FEF7FEFC401E6
:1014E0002C870E949C0B5C012C852068830123FDC6
:1014F00020C008C080E290E0B6012C870E94B20BA9
:10150000FA942C858F2D90E0A816B90698F311C097
:10151000F40127FD859127FF81914F0190E0B601ED
:101520002C870E94B20B2C85F110FA940894A10824
:10153000B108A114B10461F7F1C0843611F0893605
:1015400049F527FF08C0F80160817181828193818C
:101550000C5F1F4F09C0F80160817181882777FDFA
:101560008095982F0E5F1F4F4FE6B42EB22297FF43
:1015700009C090958095709561957F4F8F4F9F4FD3
:10158000F0E8BF2AA2012AE030E00E94DE0B782EAC
:10159000741845C0853731F43FEEB32EB2222AE0ED
:1015A00030E025C099EFB92EB2228F36C1F08037D6
:1015B00020F4883509F0B5C00DC0803721F0883798
:1015C00009F0AFC002C020E1B22AB4FE0BC084E033
:1015D000B82A08C0B4FE09C0E6E0BE2A06C028E06A
:1015E00030E005C020E130E002C020E132E0B7FE8B
:1015F00008C0F80160817181828193810C5F1F4F67
:1016000007C0F8016081718180E090E00E5F1F4F9C
:10161000A2010E94DE0B782E7418FFE7BF22B6FEEF
:101620000BC02EEFB2227E1438F4B4FE07C0B2FC19
:1016300005C08FEEB82202C0A72C01C0AE2C8B2DA6
:1016400090E0B4FE0DC0FE01E70DF11D20812033B6
:1016500019F4E9EEBE2209C0A394B2FE06C004C08C
:1016600086789070009709F0A3948B2C9924B3FC92
:1016700014C0B0FE0FC0AF1428F4E72CEF0CEA182A
:10168000AF2C08C0E72C06C080E290E0B6010E94B3
:10169000B20BA394AF14C0F304C0AF1410F4FA1843
:1016A00001C0FF2484FE0FC080E390E0B6010E94D9
:1016B000B20B82FE1FC081FE03C088E590E010C01F
:1016C00088E790E00DC0C40186789070009791F093
:1016D00081FC02C080E201C08BE2B7FC8DE290E0A9
:1016E000B6010E94B20B06C080E390E0B6010E94F2
:1016F000B20BEA947E14C0F37A94F201E70DF11D67
:10170000808190E0B6010E94B20B7720A9F706C055
:1017100080E290E0B6010E94B20BFA94FF20C1F77C
:1017200037CEF6012681378102C02FEF3FEFC90186
:101730002C96E2E10C941D08FC010590615070406C
:101740000110D8F7809590958E0F9F1F0895FC018A
:101750006150704001900110D8F7809590958E0FE0
:101760009F1F08950F931F93CF93DF938C01EB017D
:101770008B8181FF1BC082FF0DC02E813F818C8138
:101780009D812817390764F4E881F9810193F98371
:10179000E88306C0E885F985802F0995009731F424
:1017A0008E819F8101969F838E8302C00FEF1FEF72
:1017B000C801DF91CF911F910F910895FA01AA27D7
:1017C000283051F1203181F1E8946F936E7F6E5F84
:1017D0007F4F8F4F9F4FAF4FB1E03ED0B4E03CD032
:1017E000670F781F891F9A1FA11D680F791F8A1F15
:1017F000911DA11D6A0F711D811D911DA11D20D07C
:1018000009F468943F912AE0269F11243019305D35
:101810003193DEF6CF010895462F4770405D419326
:10182000B3E00FD0C9F7F6CF462F4F70405D4A3373
:1018300018F0495D31FD4052419302D0A9F7EACF3B
:10184000B4E0A6959795879577956795BA95C9F76A
:1018500000976105710508959B01AC010A2E06945D
:101860005795479537952795BA95C9F7620F731F16
:0C187000841F951FA01D0895F894FFCF61
:10187C0000000002000000004900000000002020D1
:10188C002020454E47494E454552532020200020EC
:10189C002020202047415241474520202020200075
:1018AC000A3D3D3D3D3D3D3D3D20454E47494E4564
:1018BC0045525320474152414745205344434152DE
:1018CC004420494E544552464143494E47203D3DE4
:1018DC003D3D3D3D3D000A534453432063617264DA
:1018EC00206465746563746564000A4F5054494FF5
:1018FC004E533A000A20203120203A204C495354B0
:10190C0020414C4C2046494C4553000A20203220A3
:10191C00203A205245414420412046494C45000A7A
:10192C00456E746572206F7074696F6E203A20007A
:10193C004C495354494E472046494C4553202E2E72
:10194C002E000A456E746572207468652066696C99
:10195C0065206E616D65203A200052454144494E28
:10196C00472046494C45202E2E2E0020202020209A
:0C197C00202020200020007C0100000042
:00000001FF
