:100000000C942A000C9447000C9447000C94470071
:100010000C9447000C9447000C9447000C94470044
:100020000C9447000C9447000C9447000C94470034
:100030000C9447000C9447000C9447000C94470024
:100040000C9447000C9447000C9447000C94470014
:100050000C94470011241FBECFE5D4E0DEBFCDBF16
:1000600010E0A0E6B0E0E8E5FBE102C005900D92EB
:10007000A837B107D9F714E0A8E7B0E001C01D9296
:10008000A23CB107E1F70E949F000C94AA0D0C94CA
:10009000000087B3806A87BBBE9883E58DB981E095
:1000A0008EB918BA90EB97BB90E59DB98EB90895BB
:1000B0008FB9779BFECF08958FEF8FB9779BFECFD7
:1000C0008FB108958FB9779BFECF8FB10895EF92CE
:1000D000FF920F931F93CF93DF937B01082F192F6C
:1000E000C0E0D0E006C0F80181918F010E94580065
:1000F0002196CE15DF05B8F3DF91CF911F910F91B7
:10010000FF90EF900895EF92FF920F931F93CF937C
:10011000DF937B01082F192FC0E0D0E006C00E94BA
:100120005C00F80181938F012196CE15DF05B8F3AD
:10013000DF91CF911F910F91FF90EF9008951F9342
:10014000DF93CF93CDB7DEB7C250D2400FB6F8944D
:10015000DEBF0FBECDBF8FEF84BB10EF1ABBA89AD6
:100160008BB3806F8BBB8CE790E060E670E040E083
:100170000E944A0885B3826285BB82EA92E061E60A
:1001800070E041E00E9492088823C9F4AA9A82EAAA
:1001900092E0BE016D5F7F4F40E052E09E012F5F15
:1001A0003F4F0E941109AB9A82EA92E00E947D0AB9
:1001B000AC9A89819A818B30910509F41BBB80E947
:1001C0008BBBFFCF60E070E08CEF92E408951F934B
:1001D000CF93DF93182FCFEFDFE00E945C008117F1
:1001E00021F02197D1F781E001C080E0DF91CF912C
:1001F0001F910895FF920F931F93BC9AC49A1AE01F
:100200000E945C001150E1F7C49880E48093BC0226
:100210001092BD021092BE021092BF021092C00254
:1002200085E98093C1028CEB92E066E070E00E9469
:10023000670081E00E94E700882309F043C0C49A68
:100240000E945C00C4981FEF81E4F82E0FEFF0923B
:10025000BC021092BD021092BE021092BF02109218
:10026000C0020093C1028CEB92E066E070E00E9455
:100270006700115080E00E94E700882319F01123E5
:1002800031F720C01123F1F0C49A0E945C00C49899
:1002900080E58093BC021092BD021092BE0282E003
:1002A0008093BF021092C0020093C1028CEB92E0D7
:1002B00066E070E00E94670080E00E94E700C49A58
:1002C0000E945C001F910F91FF900895CF93DF93E0
:1002D000EB019C012F733070220F880F892F881F2C
:1002E000990B9195C49831E53093BC029093BD026F
:1002F0008093BE022093BF021092C0028FEF8093C2
:10030000C1028CEB92E066E070E00E94670080E042
:100310000E94E700813089F08EEF0E94E700813073
:1003200061F0CE0160E072E00E9483000E945C00F8
:100330000E945C00C49A0E945C00DF91CF910895F6
:10034000282F392FF90180E090E009C0219125BBC9
:10035000A7E8B3E11197F1F700C0000001968617F6
:100360009707A0F30895CF93DF938FEF84BB80EFBF
:100370008ABB0E944900A89A0E94FA008BB3806F42
:100380008BBB82EC92E06AEC70E040E052E00E94AD
:10039000A30D8FE39DE0A3E081509040A040E1F7E2
:1003A00000C0000015BACFE3D0E0CE0162EC72E0ED
:1003B0000E94660182EC92E060E072E00E94A0017F
:1003C0002196CA35D10589F78BB38F708BBB80E935
:1003D0008BBBFFCFCF93DF93FC01EB0129962685E2
:1003E000378540895189211531054105510581F134
:1003F0000288F389E02DDF0180E090E03EE22D915C
:100400000196203241F0253009F425EE893091051E
:1004100009F4399329938B30910589F78385DB01A2
:1004200018968C931897248D358D468D578D2D9366
:100430003D934D935C931397808D918D15969C936E
:100440008E9314978689978917969C938E93169707
:100450001882DF91CF910895CF93DF93EC01E8816B
:10046000F9813097E1F0DF01CD012D912132A0F02B
:100470002A33D1F7208130E0205330402A30310533
:1004800070F43196E817F90751F42115310539F464
:100490003196F983E88305C020E030E002C02FEFF9
:1004A0003FEFC901DF91CF910895FC010097C1F0A2
:1004B000A081B1811097A1F08C91882389F01696C4
:1004C0002D913C911797828193812817390741F428
:1004D00011968C910E941F0D80FF04C083E0089547
:1004E00089E0089580E00895CF92DF92EF92FF9225
:1004F0000F931F93CF93DF93EC016A017B018AA1D5
:100500009BA1ACA1BDA1481759076A077B0789F0D9
:10051000BE016A5D7F4F8981A701960101E010E06D
:100520000E94250D882339F4CAA2DBA2ECA2FDA209
:1005300003C080E001C081E0DF91CF911F910F9156
:10054000FF90EF90DF90CF900895CF93DF93EC0171
:100550001C828FEF9FEFDC018AA39BA3ACA3BDA3FA
:10056000CE010E947402882351F5FE01B696DE0189
:10057000AC5DBD4F8D919C9111972AEA853592070C
:1005800001F586A997A9A0ADB1ADB070863421E47C
:10059000920724E5A20720E0B207A9F0C858DF4F70
:1005A000288139814A815B81507081E0263491E451
:1005B000390794E5490790E0590731F404C083E016
:1005C00003C082E001C080E0DF91CF910895FB017C
:1005D000228D338D40E050E0833059F48489958931
:1005E000A0E0B0E0DC0199278827282B392B4A2B83
:1005F0005B2BB901CA0108952F923F924F925F92EF
:100600006F927F928F929F92AF92BF92CF92DF9222
:10061000EF92FF920F931F93DF93CF93CDB7DEB787
:100620006F970FB6F894DEBF0FBECDBF7C01CB0134
:10063000D7011D921C920E942C026C0197FDC8C12B
:10064000FC01EE0FFF1FE858FF4F008111810115DB
:10065000110509F4BFC1F70111830083D8018C9102
:10066000882331F011968C910E941F0D80FFB4C138
:10067000F8011082C1828C2D0E945C0D80FDAEC1FC
:10068000C80140E050E0BA010E94A502813009F0A3
:100690003FC07E010894E11CF11CA7012EEB31E064
:1006A000F901B696E00FF11F8481882329F0808537
:1006B0009185A285B38503C080E090E0DC01FA015A
:1006C00081939193A193B193AF01205F3F4FF1E0EC
:1006D0002E3F3F0729F7A1E1CA2ED12CCC0EDD1EFB
:1006E000D7012D903D904D905D907D0121143104F6
:1006F0004104510441F0C801B201A1010E94A502C8
:10070000882311F40EC082E0EC14FD0449F703C005
:10071000222433242101833009F462C1882309F0A3
:1007200061C1F6E2AF2EB12CA00EB11EF50183859A
:100730009485F2E080309F0709F054C1D5015696A8
:100740008D919C9157979C0140E050E0298B3A8B0A
:100750004B8B5C8B211531054105510551F4949665
:100760008D919D910D90BC91A02D898B9A8BAB8B17
:10077000BC8B29893A894B895C89D8011E962D93B7
:100780003D934D935C935197D6962C91D6971396A3
:100790002C931397822F8150823008F023C1D39677
:1007A000BC91BF8BF801B283BB2309F41BC14B2F53
:1007B00050E0CA01019784239523009709F012C1E4
:1007C000D50151960D90BC91A02DBE8BAD8BB187FC
:1007D000A087CD018F709070009709F003C1F501DB
:1007E00063887488882499246114710481049104B5
:1007F00021F460A071A082A093A0D5011E96ED9077
:10080000FC901F97E114F10409F4ECC030E040E0E3
:1008100050E069897A898B899C890E94620D688F72
:10082000798F8A8F9B8F970140E050E02C8F3D8F0E
:100830004E8F5F8FCD88DE88E4E0D694C794EA952A
:10084000E1F7EE24FF24C20ED31EE41EF51EC60EF1
:10085000D71EE81EF91E6C147D048E049F0408F454
:10086000C1C0C401B3016C197D098E099F09AF890C
:100870002A2F30E040E050E00E94810D2115310523
:100880004105510509F4AEC0263FBFE03B07B0E08B
:100890004B07B0E05B0750F0263FEFEF3E07E0E08C
:1008A0004E07E0E05E0720F462E003C061E001C0B3
:1008B00063E02E5F3F4F4F4F5F4FD8011A962D9345
:1008C0003D934D935C931D97F801228A338A448AA5
:1008D000558A6C8C7D8C8E8C9F8C620C731C841C56
:1008E000951C56966D927D928D929C925997C20C52
:1008F000D31CE41CF51CC68ED78EE0A2F1A2633097
:10090000C9F48D899E89009709F06CC0F50184A512
:1009100095A5A6A5B7A5F801828F938FA48FB58F53
:10092000DA01C90122E0880F991FAA1FBB1F2A956F
:10093000D1F72AC08D899E89009709F453C0888D0C
:10094000998DAA8DBB8D860D971DA81DB91DF80127
:10095000828F938FA48FB58FDA01C901880F991FF9
:10096000AA1FBB1F623081F0820F931FA41FB51F07
:10097000B695A79597958795217030704070507007
:10098000820F931FA41FB51F81509E4FAF4FBF4FC3
:1009900079E0B695A795979587957A95D1F72989A6
:1009A0003A894B895C89281739074A075B07D0F0D9
:1009B000D8016C9380917A0090917B00019690937E
:1009C0007B0080937A0017969C938E93169704C0B1
:1009D0008BE009C08CE007C080E005C083E003C065
:1009E00081E001C08DE06F960FB6F894DEBF0FBEB8
:1009F000CDBFCF91DF911F910F91FF90EF90DF90CE
:100A0000CF90BF90AF909F908F907F906F905F90AE
:100A10004F903F902F900895CF93DF93EC01CB013F
:100A2000BA0162507040804090402A853B854C85D9
:100A30005D85225030404040504062177307840764
:100A4000950788F42A8130E040E050E00E94620D72
:100A50009B01AC018E8D9F8DA8A1B9A1280F391FD4
:100A60004A1F5B1F03C020E030E0A901B901CA01A1
:100A7000DF91CF910895BF92CF92DF92EF92FF92D4
:100A80000F931F93CF93DF93EC016A017B014230F8
:100A900051056105710508F4A2C08A859B85AC8566
:100AA000BD85481759076A077B0708F098C08881F9
:100AB000823009F456C0833009F46FC0813009F0E8
:100AC0008EC08A0116950795040F151FA801452FA2
:100AD0005527469560E070E08E899F89A88DB98D75
:100AE000480F591F6A1F7B1FCE010E947402882382
:100AF00009F07AC0F801F170EC0FFD1FB6A00F5F8E
:100B00001F4FA801452F5527469560E070E08E895C
:100B10009F89A88DB98D480F591F6A1F7B1FCE0171
:100B20000E947402882309F05FC02B2D30E0117001
:100B30000C0F1D1FF80196A180E0282B392BF1E046
:100B4000CF22DD24C114D10431F044E0369527953D
:100B50004A95E1F71FC040E050E03F704070507090
:100B600046C0452F562F672F77278E899F89A88DDE
:100B7000B98D480F591F6A1F7B1FCE010E94740256
:100B8000882391F5F601EE0FFF1FF170EC0FFD1FAA
:100B900026A137A140E050E02AC007E0769567958E
:100BA000579547950A95D1F78E899F89A88DB98D5C
:100BB000480F591F6A1F7B1FCE010E9474028823B1
:100BC00099F4F601EE0FFF1FEE0FFF1FF170EC0F0F
:100BD000FD1F26A137A140A551A55F7008C021E0E7
:100BE00030E040E050E003C02FEF3FEFA901B90132
:100BF000CA01DF91CF911F910F91FF90EF90DF908D
:100C0000CF90BF900895AF92BF92CF92DF92EF92B4
:100C1000FF920F931F93CF93DF93EC010C811D8103
:100C20000F5F1F4F09F476C08E859F85A889B9890B
:100C30000097A105B10509F46DC02FE0A22EB12CDB
:100C4000A022B122A114B10409F050C00196A11D47
:100C5000B11D8E879F87A88BB98B4A855B856C8574
:100C60007D8588819981411551056105710539F4AA
:100C7000FC018085918508171907C0F14BC0FC0164
:100C8000228130E021503040F801A4E0F695E7954C
:100C9000AA95E1F72E233F232115310539F50E944E
:100CA0003B05AB01BC01423051056105710570F196
:100CB0004F3FFFEF5F07FFEF6F07FFEF7F0741F148
:100CC00088819981FC01C284D384E484F5844C1525
:100CD0005D056E057F05F0F44A875B876C877D872D
:100CE0000E940C056E877F87888B998B1D830C83F0
:100CF000888199818696F5E0AA0CBB1CFA95E1F7EC
:100D00008A0D9B1D9B8B8A8B80E005C082E003C00F
:100D100081E001C084E0DF91CF911F910F91FF909E
:100D2000EF90DF90CF90BF90AF900895CF92DF9279
:100D3000EF92FF920F931F93CF93DF936C01DC012F
:100D400015961C921E9214971696ED90FD900D919B
:100D50001C911997B1E0EB16F1040105110509F496
:100D60006EC0FC01C081D1818A859B85AC85BD8523
:100D7000E816F9060A071B0708F061C0E114F10440
:100D800001051105B9F48881833041F48A8D9B8D6A
:100D9000AC8DBD8D0097A105B10551F4888599856D
:100DA000009709F44CC06A8D7B8D8C8D9D8D2DC074
:100DB0007C018D018A81882319F5D6018D919C9142
:100DC000B801A7010E943B057B018C016F3FBFEF7B
:100DD0007B07BFEF8B07BFEF9B0779F1623071058F
:100DE0008105910560F1D601ED91FC918285938595
:100DF000A485B585E816F9060A071B07F0F21FC09F
:100E0000CE01B801A7010E940C05F601E286F38627
:100E100004871587611571058105910581F0D6015B
:100E20001E966D937D938D939C935197A6965396A2
:100E3000DC93CE93529780E003C081E001C082E052
:100E4000DF91CF911F910F91FF90EF90DF90CF90A6
:100E50000895AF92BF92CF92DF92EF92FF920F93DD
:100E60001F93CF93DF93EC018B01FB0180818F32C5
:100E700011F08C3511F40F5F1F4F1E821F821886F0
:100E80001986F8018081803230F4CE010E949606E6
:100E90001B8A1A8AF4C040E2B42E35E0A32E7801F2
:100EA000F80180810F5F1F4F8F32C9F38C35B9F382
:100EB000EC89FD89DF018CE090E001C0BD920197D3
:100EC000E9F780E090E000E010E028E030E0DD2489
:100ED000D701A00FB11FCC900F5F1F4F4C2D413297
:100EE00008F465C04F3209F464C04C3509F461C0A0
:100EF0004E3219F08217930778F02830310509F047
:100F0000BBC08C2D8E3209F0B7C0DD0CDD0C88E043
:100F100090E02BE030E0DCCFC7FE02C043E0D42AF3
:100F20004C2D41584F3118F04F554D31F8F4D70141
:100F3000A00FB11F6C91462F40544F3320F0405406
:100F40004D3708F099C0A9014150504084179507CA
:100F500008F092C00F5F1F4FDF01A80FB91FCC929E
:100F60000196DF01A80FB91F6C931FC06C2D70E0B4
:100F7000A9E6B0E04D91442329F050E04617570709
:100F8000C9F77AC04C2D41544A3118F442E0D42AB2
:100F900008C04C2D41564A3120F441E0D42A40EE9D
:100FA000C40EDF01A80FB91FCC92019691CF44E087
:100FB00001C040E0009709F45FC08081853E09F4DC
:100FC000A0822830310511F4DD0CDD0C8D2D90E070
:100FD0009C01237030702130310509F440618C7020
:100FE00090708430910509F448604387CE010E94D7
:100FF0009606882319F54E855F85688979898881E9
:1010000099810E9474028823C9F4EA89FB8990813E
:10101000992399F0938593FD0CC0AC89BD899F01FC
:10102000255F3F4FE217F30749F041919D91491722
:10103000C9F3CE010E940306DCCF84E0EC89FD8970
:101040009385882329F08430D1F492FF17C017C00C
:1010500092FD15C06A897B89FB01838584FF0EC0E0
:101060000E0D1F1DE881F98180810E94E7026E83C9
:101070007F838887998713CF86E001C085E0DF9161
:10108000CF911F910F91FF90EF90DF90CF90BF9085
:10109000AF900895DF93CF93CDB7DEB727970FB604
:1010A000F894DEBF0FBECDBF9C838B837E836D83A0
:1010B0007A836983CE0101964F830E942C024F816F
:1010C00097FD24C0FC01EE0FFF1FE858FF4F019071
:1010D000F081E02D309709F01082EB81FC81309790
:1010E00009F01082DC01AA0FBB1FA858BF4F119650
:1010F000FC93EE93309761F0413051F4CE010396AA
:10110000BE016B5F7F4F0E94FC0203C08BE001C0F9
:1011100080E027960FB6F894DEBF0FBECDBFCF910B
:10112000DF910895CF92DF92EF92FF920F931F937A
:10113000DF93CF93CDB7DEB7A5970FB6F894DEBF98
:101140000FBECDBF8C017CA36BA3C42E009751F1C1
:10115000FC01118210827DE0E72EF12CEC0EFD1EC9
:10116000C701BE016D5D7F4F0E94FC02282F8823BE
:10117000D1F4CE0101969AA389A36BA17CA1C701EA
:101180000E942907282FEF8CF8A0882361F4E1142E
:10119000F10431F0F701838584FF15C024E003C01A
:1011A00026E001C029E0822FA5960FB6F894DEBF95
:1011B0000FBECDBFCF91DF911F910F91FF90EF90A8
:1011C000DF90CF9008958C2D8170F8018483158273
:1011D000CD84DE84F6018081B7012DA30E94E70251
:1011E000F80166877787808B918BF701848D958DC9
:1011F000A68DB78DF80182879387A487B58716825D
:10120000178210861186168A178A108E118ED18247
:10121000C082F60186819781F801938382832DA194
:10122000C2CF2F923F924F925F926F927F928F9296
:101230009F92AF92BF92CF92DF92FF920F931F9334
:10124000DF93CF9300D000D0CDB7DEB79C838B83E4
:101250006A012901D9011D921C9269837A830E9437
:101260005502F82E69817A81882309F02FC1EB811C
:10127000FC81F580FF2009F029C1848180FF24C111
:1012800082859385A485B5852681378140855185E2
:10129000821B930BA40BB50B960140E050E0821724
:1012A0009307A407B50708F46C01662E772E212C4E
:1012B00002E0302E04C1AB81BC8116962D913D9188
:1012C0004D915C911997DA01C9019170A070B070CD
:1012D0000097A105B10509F08BC0EB81FC818081ED
:1012E000918149015A0119E0B694A7949794879483
:1012F0001A95D1F7DC0112961C9112971150182102
:1013000041F5211531054105510529F4668577859B
:101310008089918908C0EB81FC8142895389648965
:1013200075890E943B05623071058105910518F1B0
:101330006F3FBFEF7B07BFEF8B07BFEF9B0709F442
:1013400045C0AB81BC8152966D937D938D939C93E8
:101350005597EB81FC818080918042895389648913
:101360007589C4010E940C059B01AC0161157105D2
:101370008105910549F482E0AB81BC8115968C937F
:101380001597B2E0FB2EA2C0210F311D411D511D4A
:101390005601AB2CBB24A694A114B10409F1F401AD
:1013A0006281812F90E0F501E80FF91F70E06E1760
:1013B0007F0718F45B01A81AB90AD40111968C9121
:1013C000B30185010E94250D882329F081E0EB817E
:1013D000FC81858323C0B501762F6627770F51C026
:1013E000AB81BC8156962D933D934D935C93599759
:1013F000EB81FC8186809780A084B18446895789DF
:10140000608D718D808191810E947402882349F0E2
:1014100081E0AB81BC8115968C931597FF24F394E2
:1014200055C0C4019170F101E81BF90BB601EC1530
:10143000FD0508F4BF01AB81BC818D919C91119792
:10144000869616962D913C9117973170820F931FB7
:10145000DC01F3019B0106C04D915D9141935193D5
:101460002250304022303105B8F79B012E7FF30126
:10147000E20FF31F820F931F60FF03C0DC018C910A
:101480008083660E771E9B0140E050E0EB81FC817B
:1014900086819781A085B185820F931FA41FB51FF8
:1014A00086839783A087B187D2018D919C911197F4
:1014B000860F971F11969C938E93C61AD70AC11454
:1014C000D10409F0F8CE02C0E7E0FE2E8F2D0F9078
:1014D0000F900F900F90CF91DF911F910F91FF9080
:1014E000DF90CF90BF90AF909F908F907F906F9044
:1014F0005F904F903F902F900895CF93DF93EC0132
:101500000E945502882311F419821882DF91CF912D
:1015100008952F923F924F925F926F927F929F9287
:10152000AF92BF92CF92DF92EF92FF920F931F93F1
:10153000DF93CF93CDB7DEB728970FB6F894DEBF11
:101540000FBECDBF1C014D835E836F8378870E94E1
:101550005502982E4D815E816F817885882309F030
:1015600025C1D10115969C901597992009F01EC1AF
:101570001A968D919D910D90BC91A02DE42EF52E83
:10158000062F172F8E159F05A007B10710F47C01B9
:101590008D01F10186819781A085B1851682178220
:1015A00010861186E114F1040105110509F4DFC06C
:1015B00020813181F901A280BB24CC24DD2449E0C3
:1015C000AA0CBB1CCC1CDD1C4A95D1F70097A105C9
:1015D000B105E9F12C013D01089441085108610869
:1015E0007108C801B7016150704080409040A60169
:1015F00095010E94810D29833A834B835C83C3014B
:10160000B201A60195010E94810D89819A81AB8169
:10161000BC8182179307A407B507C8F088279927CC
:10162000DC018A199B09AC09BD0984219521A621F9
:10163000B721F10186839783A087B187E81AF90A59
:101640000A0B1B0B42895389648975890CC0D1012F
:101650001E964D915D916D917C915197F101428B58
:10166000538B648B758B411551056105710509F428
:101670007EC044C0D1018D919C910E943B05AB017D
:10168000BC014F3FBFEF5B07BFEF6B07BFEF7B07AF
:1016900031F481E0F10185839924939487C042302D
:1016A00051056105710560F0D101ED91FC918285D4
:1016B0009385A485B585481759076A077B0720F0ED
:1016C00082E0F101858344C0D10152964D935D9330
:1016D0006D937C93559716968D919D910D90BC912D
:1016E000A02D8A0D9B1DAC1DBD1DF1018683978326
:1016F000A087B187EA18FB080C091D09AE14BF04C6
:10170000C006D10608F4B6CFF10186819781A08585
:10171000B1858E0D9F1DA01FB11F86839783A08763
:10172000B187D801C7019170A070B0700097A10572
:10173000B105E9F0808191810E940C056115710568
:101740008105910541F482E0D10115968C9315979E
:1017500032E0932E2BC029E016950795F794E79475
:101760002A95D1F7E60EF71E081F191F03C0EE24B5
:10177000FF248701F10186819781A085B185917051
:10178000A070B0700097A105B10581F08689978996
:10179000A08DB18DE816F9060A071B0739F0D101B3
:1017A0005696ED92FD920D931C935997892D28968C
:1017B0000FB6F894DEBF0FBECDBFCF91DF911F9162
:1017C0000F91FF90EF90DF90CF90BF90AF909F90E0
:1017D0007F906F905F904F903F902F9008950F9360
:1017E0001F93DF93CF93CDB7DEB760970FB6F89412
:1017F000DEBF0FBECDBF8C01788B6F87009709F4D9
:1018000041C0CE010196BE01615F7F4F0E94FC0284
:101810008823A1F589819A81F80191838083CE0183
:101820000396958B848B6F857889C8010E94290760
:101830008823F1F4F801628973896115710571F0EB
:10184000FB01838584FF19C0E981FA8180810E94B0
:10185000E702F8016683778380879187E981FA81BF
:1018600086819781F80193838283C8010E9496063E
:10187000843019F0882339F001C085E0F801118225
:10188000108201C089E060960FB6F894DEBF0FBEEB
:10189000CDBFCF91DF911F910F910895CF93DF932B
:1018A000EC010E945502882311F419821882DF91FD
:1018B000CF910895DF92EF92FF920F931F93DF93E2
:1018C000CF93CDB7DEB72C970FB6F894DEBF0FBE1F
:1018D000CDBF8C017B010E945502D82E882309F0D0
:1018E00055C0E114F10421F4C8010E9496064DC0D0
:1018F000CE010196D80155969C938E93549784E01F
:1019000020C0F801808191810E947402882329F50A
:10191000D8015296ED91FC9153978081882309F468
:1019200044C09385853E41F08E3231F0892F8F730C
:101930008F3011F08830D1F4C8010E94030688234B
:1019400061F4F80146855785608971894115510513
:1019500061057105B1F6882349F0D8011E961D92E4
:101960001D921D921C925197843079F4C801B701E1
:101970000E94EA01C8010E940306843031F4F80194
:1019800016861786108A118A01C0D82E8D2D2C96A6
:101990000FB6F894DEBF0FBECDBFCF91DF911F9180
:1019A0000F91FF90EF90DF90089584E0D6CFDF9203
:1019B000EF92FF920F931F93DF93CF93CDB7DEB7D4
:1019C000A4970FB6F894DEBF0FBECDBF9CA38BA328
:1019D0007B018E01035F1F4FC801BE016D5D7F4F0C
:1019E0000E94FC02D82E8823D9F4CE0101969AA336
:1019F00089A36BA17CA1C8010E942907D82E882346
:101A000079F42F8D38A12115310541F0E114F1044D
:101A100039F0C801B7010E94EA0102C056E0D52E94
:101A20008D2DA4960FB6F894DEBF0FBECDBFCF911B
:101A3000DF911F910F91FF90EF90DF90089591E05B
:101A4000882309F490E0892F08958F929F92AF9296
:101A5000BF92CF92DF92EF92FF920F931F93CF939B
:101A6000DF9359016A014801E62EE7017E01F72E56
:101A7000E701860175010CC0C801B701AE010E94E3
:101A800066010894E11CF11C011D111DC050DE4FC0
:101A9000C7018A199B098815990570F380E0DF91C9
:101AA000CF911F910F91FF90EF90DF90CF90BF905B
:101AB000AF909F908F9008950E9449000E94FA0075
:101AC00080E00895629FD001739FF001829FE00D36
:101AD000F11D649FE00DF11D929FF00D839FF00DAD
:101AE000749FF00D659FF00D9927729FB00DE11D59
:101AF000F91F639FB00DE11DF91FBD01CF01112436
:101B00000895A1E21A2EAA1BBB1BFD010DC0AA1F3E
:101B1000BB1FEE1FFF1FA217B307E407F50720F056
:101B2000A21BB30BE40BF50B661F771F881F991FD1
:101B30001A9469F760957095809590959B01AC011A
:101B4000BD01CF010895DC0101C06D9341505040AB
:081B5000E0F70895F894FFCFBF
:101B5800007478742E74787400222A2B2C3A3B3C3B
:081B68003D3E3F5B5D7C7F0008
:00000001FF
