:1000000012C02CC02BC02AC029C028C027C026C0BF
:1000100025C024C023C022C021C020C01FC01EC0D4
:100020001DC01CC01BC011241FBECFE5D4E0DEBF25
:10003000CDBF10E0A0E6B0E0E8EDF5E002C005902D
:100040000D92AC3DB107D9F713E0ACEDB0E001C0C3
:100050001D92A23EB107E1F790D2BCC2D1CF18BA2F
:100060008CE287BB80E58DB981E08EB908958FB9A8
:10007000779BFECF08958FEF8FB9779BFECF8FB11F
:1000800008958FB9779BFECF8FB10895EF92FF92BD
:100090000F931F93CF93DF937B01082F192FC0E09D
:1000A000D0E005C0F80181918F01E1DF2196CE15E6
:1000B000DF05C0F3DF91CF911F910F91FF90EF907B
:1000C0000895EF92FF920F931F93CF93DF937B01DD
:1000D000082F192FC0E0D0E005C0CDDFF8018193D3
:1000E0008F012196CE15DF05C0F3DF91CF911F91CF
:1000F0000F91FF90EF90089590E007C0EBE4FDE1D1
:100100003197F1F700C000009F5F9817B8F308958A
:10011000DC018C9180538093600080E00FC0A99A2D
:10012000E3E2F4EF3197F1F700C00000A998E3E2B1
:10013000F4EF3197F1F700C000008F5F90916000FD
:10014000891768F31196E1E6F0E08D91808333968C
:1001500080E0EF3DF807C9F70895ECEDF0E020E00E
:1001600031E0DF01A9011D9241505040E1F7319685
:10017000A82FB92F80E090E023C02D912536F1F40F
:100180003C913F36D9F411963C9111973636B1F433
:1001900012963C911297363689F48093DC00A99A26
:1001A00083E294EF0197F1F700C00000A998A3E261
:1001B000B4EF1197F1F700C0000005C0019621933C
:1001C00086179707D0F281E008955F926F927F9231
:1001D0008F929F92AF92BF92CF92DF92EF92FF9257
:1001E0000F931F93CF93DF935C016B01EC0134E01D
:1001F000E32EF12CE80EF91E04E010E02DEF822E24
:100200002FEF922E860E971E9CEF692E9FEF792E70
:10021000660E771E82E0582E5AC08991882309F411
:100220004EC0843709F04BC08881853609F047C03D
:100230008981883709F043C08A81843709F03FC03B
:10024000A99A83E294EF0197F1F700C00000A99802
:1002500083E294EF0197F1F700C00000B601601B44
:10026000710BC70155DF9801F70126C081918D36CA
:1002700009F580818536F1F481818337D9F4828153
:100280008337C1F4A99A83E294EF0197F1F700C094
:100290000000A99883E294EF0197F1F700C00000F5
:1002A000C9010496B301621B730B8A0D9B1D55DFB8
:1002B00081E014C02F5F3F4F28153905B8F285B390
:1002C000852585BB0F5F1F4F0894E11CF11CC801F9
:1002D00004978815990508F4A0CF80E0DF91CF91AD
:1002E0001F910F91FF90EF90DF90CF90BF90AF9054
:1002F0009F908F907F906F905F900895A89AA99A91
:1003000020EF30E0AC01429FC001439F900D529F0F
:10031000900D112431E008C025B3232725BB59E2F5
:100320005A95F1F700C0019797FFF6CFA898A998C2
:100330000895FF920F931F93DF93CF9300D00F92F6
:10034000CDB7DEB769837A838B8300E010E058E095
:10035000F52E1FC0FA948A8190E00F2C02C095956B
:1003600087950A94E2F780FF08C08091600090E0D2
:10037000880F991F880F991F03C08091600090E03B
:10038000BDDFA898A99880916000880FB5DE0F5F47
:100390001F4F8B8190E008171907E4F20F900F9020
:1003A0000F90CF91DF911F910F91FF900895DF92F1
:1003B000EF92FF920F931F93CF93DF93DD24D3949B
:1003C0001DC0F8019081F7018081981759F4FE0152
:1003D000EE0FFF1FEC0FFD1FEF59FF4F6081718182
:1003E0008281A7DF21960D5F1F4FCA32D10549F7E1
:1003F00080916000880F880F7FDED3948091DC00AD
:100400008D1558F001E610E0C0E0D0E0ED2CFF249F
:100410008CED90E0E80EF91ED4CFDF91CF911F91C3
:100420000F91FF90EF90DF9008951F93CF93DF938C
:10043000182FCFEFDFE01FDE811721F02197D9F7CA
:1004400081E001C080E0DF91CF911F910895FF927C
:100450000F931F93BA9AC29A1AE00DDE1150E9F772
:10046000C29880E48093DC011092DD011092DE01DD
:100470001092DF011092E00185E98093E1018CED9B
:1004800091E066E070E002DE81E0CFDF882311F0CA
:10049000AC9A3CC0C29AEFDDC2981FEF71E4F72E10
:1004A0000FEFF092DC011092DD011092DE0110924C
:1004B000DF011092E0010093E1018CED91E066E034
:1004C00070E0E4DD115080E0B0DF882319F01123E3
:1004D00041F71CC01123D1F0C29ACDDDC29880E54E
:1004E0008093DC011092DD011092DE0182E08093A6
:1004F000DF011092E0010093E1018CED91E066E0F4
:1005000070E0C4DD80E091DFC29AB5DD1F910F91EC
:10051000FF900895CF93DF93EB019C012F73307010
:10052000220F880F892F881F990B9195C29831E56A
:100530003093DC019093DD018093DE012093DF0195
:100540001092E0018FEF8093E1018CED91E066E085
:1005500070E09CDD80E069DF813061F08EEF65DF67
:10056000813041F0CE0160E072E0ABDD84DD83DDFF
:10057000C29A81DDDF91CF910895CF93DF93A09A46
:10058000A19A6DDD64DFCDE4D0E0219682EE91E0AA
:1005900061E170E040E052E016D0CE0162EE71E021
:1005A000B9DF82EE91E060E072E00FDE882369F34C
:1005B000FEDE8FE794E8AEE181509040A040E1F785
:1005C00000C00000F5CFDC0101C06D9341505040E8
:0805D000E0F70895F894FFCF55
:1005D8000100400200800300600300C003008003A4
:1005E80000000100100400C00400000200A0030085
:1005F800400400C00200800200E0030060040040E4
:100608000300000300800100200300200400000410
:1006180000A00400E00400F00400D00400B00400CE
:10062800300400500400700400900400900400207E
:1006380005007805003805001805000805000005C4
:0C06480000800500C00500E00500F00582
:00000001FF
