:100000000C942A000C943C000C943C000C943C0092
:100010000C943C000C943C000C943C000C943C0070
:100020000C943C000C943C000C943C000C943C0060
:100030000C943C000C943C000C943C000C943C0050
:100040000C943C000C943C000C943C000C943C0040
:100050000C943C0011241FBECFE5D4E0DEBFCDBF21
:1000600012E0A0E6B0E001C01D92A636B107E1F7AC
:100070000E9415010C94A9010C9400001F93CF93CA
:10008000DF93182FCFEFDFE00E945F01811721F08F
:100090002197D1F781E001C080E0DF91CF911F91DE
:1000A0000895FF920F931F93BC9AC49A1AE00E947E
:1000B0005F011150E1F7C49880E4809360001092D2
:1000C000610010926200109263001092640085E952
:1000D0008093650080E690E066E070E00E946A012F
:1000E00081E00E943E00882311F0AC9A4DC0A99A8D
:1000F000C49A0E945F01C498AA9A1FEF81E4F82E67
:100100000FEFF09260001092610010926200109266
:100110006300109264000093650080E690E066E062
:1001200070E00E946A01115080E00E943E00882326
:1001300019F0112331F702C0112311F4AD9A24C034
:10014000AB9AC49A0E945F01C498AD9880E58093F1
:100150006000109261001092620082E08093630060
:10016000109264000093650080E690E066E070E025
:100170000E946A0180E00E943E00813009F4AE9A3C
:10018000C49A0E945F01DD9A1F910F91FF9008951C
:10019000CF93DF93EB019C012F733070220F880FF8
:1001A000892F881F990B9195C49831E53093600091
:1001B000909361008093620020936300109264002A
:1001C0008FEF8093650080E690E066E070E00E942B
:1001D0006A0180E00E943E00813089F08EEF0E942B
:1001E0003E00813061F0CE0160E072E00E94860145
:1001F0000E945F010E945F01C49A0E945F01DF912B
:10020000CF910895282F392FF90180E090E009C09F
:10021000219125BBA7E8B3E11197F1F700C00000D9
:10022000019686179707A0F30895CF93DF938FEF7A
:1002300084BB80EF8ABB0E944C01A89A0E945100A7
:100240008BB3806F8BBB86E690E06AEC70E040E099
:1002500052E00E94A2018FE39DE0A3E08150904014
:10026000A040E1F700C0000015BACFE3D0E0CE0116
:1002700066E670E00E94C80086E690E060E072E00A
:100280000E9402012196CA35D10589F78BB38F7080
:100290008BBB80E98BBBFFCF87B3806A87BBBE98DF
:1002A00083E58DB981E08EB918BA90EB97BB90E5E4
:1002B0009DB98EB908958FB9779BFECF08958FEFC2
:1002C0008FB9779BFECF8FB108958FB9779BFECF03
:1002D0008FB10895EF92FF920F931F93CF93DF9307
:1002E0007B01082F192FC0E0D0E006C0F8018191F2
:1002F0008F010E945B012196CE15DF05B8F3DF91D7
:10030000CF911F910F91FF90EF900895EF92FF9280
:100310000F931F93CF93DF937B01082F192FC0E01A
:10032000D0E006C00E945F01F80181938F01219601
:10033000CE15DF05B8F3DF91CF911F910F91FF909C
:10034000EF900895DC0101C06D9341505040E0F7FB
:060350000895F894FFCFB0
:00000001FF
